{"contracts/FoterreToken.sol":{"FoterreToken":{"abi":[{"inputs":[{"internalType":"uint256","name":"max_supply","type":"uint256"}],"stateMutability":"nonpayable","type":"constructor"},{"inputs":[{"internalType":"uint256","name":"increasedSupply","type":"uint256"},{"internalType":"uint256","name":"cap","type":"uint256"}],"name":"ERC20ExceededCap","type":"error"},{"inputs":[{"internalType":"address","name":"spender","type":"address"},{"internalType":"uint256","name":"allowance","type":"uint256"},{"internalType":"uint256","name":"needed","type":"uint256"}],"name":"ERC20InsufficientAllowance","type":"error"},{"inputs":[{"internalType":"address","name":"sender","type":"address"},{"internalType":"uint256","name":"balance","type":"uint256"},{"internalType":"uint256","name":"needed","type":"uint256"}],"name":"ERC20InsufficientBalance","type":"error"},{"inputs":[{"internalType":"address","name":"approver","type":"address"}],"name":"ERC20InvalidApprover","type":"error"},{"inputs":[{"internalType":"uint256","name":"cap","type":"uint256"}],"name":"ERC20InvalidCap","type":"error"},{"inputs":[{"internalType":"address","name":"receiver","type":"address"}],"name":"ERC20InvalidReceiver","type":"error"},{"inputs":[{"internalType":"address","name":"sender","type":"address"}],"name":"ERC20InvalidSender","type":"error"},{"inputs":[{"internalType":"address","name":"spender","type":"address"}],"name":"ERC20InvalidSpender","type":"error"},{"inputs":[{"internalType":"string","name":"message","type":"string"}],"name":"restrictAccess","type":"error"},{"anonymous":false,"inputs":[{"indexed":true,"internalType":"address","name":"account","type":"address"},{"indexed":false,"internalType":"string","name":"message","type":"string"}],"name":"AccountFrozenEvent","type":"event"},{"anonymous":false,"inputs":[{"indexed":true,"internalType":"address","name":"owner","type":"address"},{"indexed":true,"internalType":"address","name":"spender","type":"address"},{"indexed":false,"internalType":"uint256","name":"value","type":"uint256"}],"name":"Approval","type":"event"},{"anonymous":false,"inputs":[{"indexed":true,"internalType":"address","name":"from","type":"address"},{"indexed":true,"internalType":"address","name":"to","type":"address"},{"indexed":false,"internalType":"uint256","name":"value","type":"uint256"}],"name":"Transfer","type":"event"},{"anonymous":false,"inputs":[{"indexed":false,"internalType":"address","name":"sender","type":"address"},{"indexed":false,"internalType":"address","name":"recipient","type":"address"},{"indexed":false,"internalType":"uint256","name":"amount","type":"uint256"},{"indexed":false,"internalType":"string","name":"message","type":"string"},{"indexed":false,"internalType":"uint256","name":"datetime","type":"uint256"}],"name":"Transfer","type":"event"},{"inputs":[],"name":"_owner","outputs":[{"internalType":"address","name":"","type":"address"}],"stateMutability":"view","type":"function"},{"inputs":[{"internalType":"uint256","name":"amount","type":"uint256"}],"name":"addToReversePool","outputs":[],"stateMutability":"nonpayable","type":"function"},{"inputs":[{"internalType":"address","name":"owner","type":"address"},{"internalType":"address","name":"spender","type":"address"}],"name":"allowance","outputs":[{"internalType":"uint256","name":"","type":"uint256"}],"stateMutability":"view","type":"function"},{"inputs":[{"internalType":"address","name":"spender","type":"address"},{"internalType":"uint256","name":"value","type":"uint256"}],"name":"approve","outputs":[{"internalType":"bool","name":"","type":"bool"}],"stateMutability":"nonpayable","type":"function"},{"inputs":[{"internalType":"address","name":"account","type":"address"}],"name":"balanceOf","outputs":[{"internalType":"uint256","name":"","type":"uint256"}],"stateMutability":"view","type":"function"},{"inputs":[],"name":"cap","outputs":[{"internalType":"uint256","name":"","type":"uint256"}],"stateMutability":"view","type":"function"},{"inputs":[],"name":"decimals","outputs":[{"internalType":"uint8","name":"","type":"uint8"}],"stateMutability":"view","type":"function"},{"inputs":[{"internalType":"address payable","name":"recipient","type":"address"},{"internalType":"uint256","name":"amount","type":"uint256"},{"internalType":"string","name":"message","type":"string"}],"name":"deployToBlockchain","outputs":[],"stateMutability":"nonpayable","type":"function"},{"inputs":[{"internalType":"uint256","name":"","type":"uint256"}],"name":"fraudulentUserAddresses","outputs":[{"internalType":"address","name":"","type":"address"}],"stateMutability":"view","type":"function"},{"inputs":[{"internalType":"uint256","name":"","type":"uint256"}],"name":"frozenAddresses","outputs":[{"internalType":"address","name":"","type":"address"}],"stateMutability":"view","type":"function"},{"inputs":[],"name":"getAllFraudulentUsers","outputs":[{"internalType":"address[]","name":"","type":"address[]"}],"stateMutability":"view","type":"function"},{"inputs":[],"name":"getAllFrozenUsers","outputs":[{"internalType":"address[]","name":"","type":"address[]"}],"stateMutability":"view","type":"function"},{"inputs":[],"name":"getAllTransactions","outputs":[{"components":[{"internalType":"address","name":"sender","type":"address"},{"internalType":"address","name":"recipient","type":"address"},{"internalType":"uint256","name":"amount","type":"uint256"},{"internalType":"string","name":"message","type":"string"},{"internalType":"uint256","name":"datetime","type":"uint256"}],"internalType":"struct FoterreToken.TransactionDetail[]","name":"","type":"tuple[]"}],"stateMutability":"view","type":"function"},{"inputs":[{"internalType":"address","name":"target","type":"address"}],"name":"getFraudulentUserReportCount","outputs":[{"internalType":"uint256","name":"","type":"uint256"}],"stateMutability":"view","type":"function"},{"inputs":[],"name":"getTransactionCount","outputs":[{"internalType":"uint256","name":"","type":"uint256"}],"stateMutability":"view","type":"function"},{"inputs":[{"internalType":"address","name":"target","type":"address"}],"name":"isFraudulentUser","outputs":[{"internalType":"bool","name":"","type":"bool"}],"stateMutability":"view","type":"function"},{"inputs":[],"name":"marketSupply","outputs":[{"internalType":"uint256","name":"","type":"uint256"}],"stateMutability":"view","type":"function"},{"inputs":[],"name":"name","outputs":[{"internalType":"string","name":"","type":"string"}],"stateMutability":"view","type":"function"},{"inputs":[],"name":"ownerToken","outputs":[{"internalType":"uint256","name":"","type":"uint256"}],"stateMutability":"view","type":"function"},{"inputs":[{"internalType":"address","name":"target","type":"address"},{"internalType":"uint256","name":"amount","type":"uint256"}],"name":"reportForReverse","outputs":[],"stateMutability":"nonpayable","type":"function"},{"inputs":[{"internalType":"address","name":"target","type":"address"}],"name":"restrictAccountAccess","outputs":[],"stateMutability":"nonpayable","type":"function"},{"inputs":[],"name":"reverseTransactionSupply","outputs":[{"internalType":"uint256","name":"","type":"uint256"}],"stateMutability":"view","type":"function"},{"inputs":[],"name":"symbol","outputs":[{"internalType":"string","name":"","type":"string"}],"stateMutability":"view","type":"function"},{"inputs":[],"name":"totalSupply","outputs":[{"internalType":"uint256","name":"","type":"uint256"}],"stateMutability":"view","type":"function"},{"inputs":[{"internalType":"address","name":"to","type":"address"},{"internalType":"uint256","name":"amount","type":"uint256"}],"name":"transfer","outputs":[{"internalType":"bool","name":"","type":"bool"}],"stateMutability":"nonpayable","type":"function"},{"inputs":[{"internalType":"address","name":"from","type":"address"},{"internalType":"address","name":"to","type":"address"},{"internalType":"uint256","name":"value","type":"uint256"}],"name":"transferFrom","outputs":[{"internalType":"bool","name":"","type":"bool"}],"stateMutability":"nonpayable","type":"function"},{"inputs":[{"internalType":"uint256","name":"amount","type":"uint256"}],"name":"userDeposit","outputs":[],"stateMutability":"nonpayable","type":"function"},{"inputs":[{"internalType":"uint256","name":"amount","type":"uint256"}],"name":"userWithdrawal","outputs":[],"stateMutability":"nonpayable","type":"function"}],"devdoc":{"errors":{"ERC20ExceededCap(uint256,uint256)":[{"details":"Total supply cap has been exceeded."}],"ERC20InsufficientAllowance(address,uint256,uint256)":[{"details":"Indicates a failure with the `spender`’s `allowance`. Used in transfers.","params":{"allowance":"Amount of tokens a `spender` is allowed to operate with.","needed":"Minimum amount required to perform a transfer.","spender":"Address that may be allowed to operate on tokens without being their owner."}}],"ERC20InsufficientBalance(address,uint256,uint256)":[{"details":"Indicates an error related to the current `balance` of a `sender`. Used in transfers.","params":{"balance":"Current balance for the interacting account.","needed":"Minimum amount required to perform a transfer.","sender":"Address whose tokens are being transferred."}}],"ERC20InvalidApprover(address)":[{"details":"Indicates a failure with the `approver` of a token to be approved. Used in approvals.","params":{"approver":"Address initiating an approval operation."}}],"ERC20InvalidCap(uint256)":[{"details":"The supplied cap is not a valid cap."}],"ERC20InvalidReceiver(address)":[{"details":"Indicates a failure with the token `receiver`. Used in transfers.","params":{"receiver":"Address to which tokens are being transferred."}}],"ERC20InvalidSender(address)":[{"details":"Indicates a failure with the token `sender`. Used in transfers.","params":{"sender":"Address whose tokens are being transferred."}}],"ERC20InvalidSpender(address)":[{"details":"Indicates a failure with the `spender` to be approved. Used in approvals.","params":{"spender":"Address that may be allowed to operate on tokens without being their owner."}}]},"events":{"Approval(address,address,uint256)":{"details":"Emitted when the allowance of a `spender` for an `owner` is set by a call to {approve}. `value` is the new allowance."},"Transfer(address,address,uint256)":{"details":"Emitted when `value` tokens are moved from one account (`from`) to another (`to`). Note that `value` may be zero."}},"kind":"dev","methods":{"allowance(address,address)":{"details":"See {IERC20-allowance}."},"approve(address,uint256)":{"details":"See {IERC20-approve}. NOTE: If `value` is the maximum `uint256`, the allowance is not updated on `transferFrom`. This is semantically equivalent to an infinite approval. Requirements: - `spender` cannot be the zero address."},"balanceOf(address)":{"details":"See {IERC20-balanceOf}."},"cap()":{"details":"Returns the cap on the token's total supply."},"decimals()":{"details":"Returns the number of decimals used to get its user representation. For example, if `decimals` equals `2`, a balance of `505` tokens should be displayed to a user as `5.05` (`505 / 10 ** 2`). Tokens usually opt for a value of 18, imitating the relationship between Ether and Wei. This is the default value returned by this function, unless it's overridden. NOTE: This information is only used for _display_ purposes: it in no way affects any of the arithmetic of the contract, including {IERC20-balanceOf} and {IERC20-transfer}."},"name()":{"details":"Returns the name of the token."},"symbol()":{"details":"Returns the symbol of the token, usually a shorter version of the name."},"totalSupply()":{"details":"See {IERC20-totalSupply}."},"transferFrom(address,address,uint256)":{"details":"See {IERC20-transferFrom}. Emits an {Approval} event indicating the updated allowance. This is not required by the EIP. See the note at the beginning of {ERC20}. NOTE: Does not update the allowance if the current allowance is the maximum `uint256`. Requirements: - `from` and `to` cannot be the zero address. - `from` must have a balance of at least `value`. - the caller must have allowance for ``from``'s tokens of at least `value`."}},"version":1},"evm":{"bytecode":{"linkReferences":{},"object":"60c06040523480156200001157600080fd5b5060405162003a6238038062003a6283398181016040528101906200003791906200059a565b670de0b6b3a7640000816200004d9190620005fb565b6040518060400160405280600781526020017f466f7465727265000000000000000000000000000000000000000000000000008152506040518060400160405280600481526020017f464f5445000000000000000000000000000000000000000000000000000000008152508160039081620000ca9190620008b6565b508060049081620000dc9190620008b6565b50505060008103620001285760006040517f392e1e270000000000000000000000000000000000000000000000000000000081526004016200011f9190620009e0565b60405180910390fd5b8060808181525050503373ffffffffffffffffffffffffffffffffffffffff1660a08173ffffffffffffffffffffffffffffffffffffffff168152505060006c0183bdac6ae9bc1c8cc0000000905060006b60ef6b1aba6f07233000000090508160058190555080600781905550620001aa60a05183620001c760201b60201c565b620001be60a05182620001c760201b60201c565b50505062000b32565b600073ffffffffffffffffffffffffffffffffffffffff168273ffffffffffffffffffffffffffffffffffffffff16036200023c5760006040517fec442f0500000000000000000000000000000000000000000000000000000000815260040162000233919062000a42565b60405180910390fd5b62000250600083836200025460201b60201c565b5050565b620002678383836200031660201b60201c565b600073ffffffffffffffffffffffffffffffffffffffff168373ffffffffffffffffffffffffffffffffffffffff160362000311576000620002ae6200054660201b60201c565b90506000620002c26200055060201b60201c565b9050818111156200030e5780826040517f9e79f8540000000000000000000000000000000000000000000000000000000081526004016200030592919062000a70565b60405180910390fd5b50505b505050565b600073ffffffffffffffffffffffffffffffffffffffff168373ffffffffffffffffffffffffffffffffffffffff16036200036c5780600260008282546200035f919062000a9d565b9250508190555062000442565b60008060008573ffffffffffffffffffffffffffffffffffffffff1673ffffffffffffffffffffffffffffffffffffffff16815260200190815260200160002054905081811015620003fb578381836040517fe450d38c000000000000000000000000000000000000000000000000000000008152600401620003f29392919062000ad8565b60405180910390fd5b8181036000808673ffffffffffffffffffffffffffffffffffffffff1673ffffffffffffffffffffffffffffffffffffffff16815260200190815260200160002081905550505b600073ffffffffffffffffffffffffffffffffffffffff168273ffffffffffffffffffffffffffffffffffffffff16036200048d5780600260008282540392505081905550620004da565b806000808473ffffffffffffffffffffffffffffffffffffffff1673ffffffffffffffffffffffffffffffffffffffff168152602001908152602001600020600082825401925050819055505b8173ffffffffffffffffffffffffffffffffffffffff168373ffffffffffffffffffffffffffffffffffffffff167fddf252ad1be2c89b69c2b068fc378daa952ba7f163c4a11628f55a4df523b3ef8360405162000539919062000b15565b60405180910390a3505050565b6000608051905090565b6000600254905090565b600080fd5b6000819050919050565b62000574816200055f565b81146200058057600080fd5b50565b600081519050620005948162000569565b92915050565b600060208284031215620005b357620005b26200055a565b5b6000620005c38482850162000583565b91505092915050565b7f4e487b7100000000000000000000000000000000000000000000000000000000600052601160045260246000fd5b600062000608826200055f565b915062000615836200055f565b925082820262000625816200055f565b915082820484148315176200063f576200063e620005cc565b5b5092915050565b600081519050919050565b7f4e487b7100000000000000000000000000000000000000000000000000000000600052604160045260246000fd5b7f4e487b7100000000000000000000000000000000000000000000000000000000600052602260045260246000fd5b60006002820490506001821680620006c857607f821691505b602082108103620006de57620006dd62000680565b5b50919050565b60008190508160005260206000209050919050565b60006020601f8301049050919050565b600082821b905092915050565b600060088302620007487fffffffffffffffffffffffffffffffffffffffffffffffffffffffffffffffff8262000709565b62000754868362000709565b95508019841693508086168417925050509392505050565b6000819050919050565b600062000797620007916200078b846200055f565b6200076c565b6200055f565b9050919050565b6000819050919050565b620007b38362000776565b620007cb620007c2826200079e565b84845462000716565b825550505050565b600090565b620007e2620007d3565b620007ef818484620007a8565b505050565b5b8181101562000817576200080b600082620007d8565b600181019050620007f5565b5050565b601f82111562000866576200083081620006e4565b6200083b84620006f9565b810160208510156200084b578190505b620008636200085a85620006f9565b830182620007f4565b50505b505050565b600082821c905092915050565b60006200088b600019846008026200086b565b1980831691505092915050565b6000620008a6838362000878565b9150826002028217905092915050565b620008c18262000646565b67ffffffffffffffff811115620008dd57620008dc62000651565b5b620008e98254620006af565b620008f68282856200081b565b600060209050601f8311600181146200092e576000841562000919578287015190505b62000925858262000898565b86555062000995565b601f1984166200093e86620006e4565b60005b82811015620009685784890151825560018201915060208501945060208101905062000941565b8683101562000988578489015162000984601f89168262000878565b8355505b6001600288020188555050505b505050505050565b6000819050919050565b6000620009c8620009c2620009bc846200099d565b6200076c565b6200055f565b9050919050565b620009da81620009a7565b82525050565b6000602082019050620009f76000830184620009cf565b92915050565b600073ffffffffffffffffffffffffffffffffffffffff82169050919050565b600062000a2a82620009fd565b9050919050565b62000a3c8162000a1d565b82525050565b600060208201905062000a59600083018462000a31565b92915050565b62000a6a816200055f565b82525050565b600060408201905062000a87600083018562000a5f565b62000a96602083018462000a5f565b9392505050565b600062000aaa826200055f565b915062000ab7836200055f565b925082820190508082111562000ad25762000ad1620005cc565b5b92915050565b600060608201905062000aef600083018662000a31565b62000afe602083018562000a5f565b62000b0d604083018462000a5f565b949350505050565b600060208201905062000b2c600083018462000a5f565b92915050565b60805160a051612ee762000b7b600039600081816111f801528181611268015281816116140152818161184e015281816118f50152611b2401526000610a2d0152612ee76000f3fe608060405234801561001057600080fd5b50600436106101c45760003560e01c806370a08231116100f9578063bada6e2311610097578063dd62ed3e11610071578063dd62ed3e1461050f578063e80a4d581461053f578063f09c69c71461056f578063f868e7661461058b576101c4565b8063bada6e23146104a5578063bafb8e83146104c1578063dcf6ea88146104df576101c4565b806390aaafb3116100d357806390aaafb31461041d57806395d89b4114610439578063a9059cbb14610457578063b2bdfa7b14610487576101c4565b806370a08231146103b557806385805723146103e55780638d1aadbf14610401576101c4565b806327506f5311610166578063313ce56711610140578063313ce5671461032b578063355274ea146103495780635506ed44146103675780636537188314610397576101c4565b806327506f53146102d15780632e7700f0146102ef5780632e9c3d941461030d576101c4565b806318160ddd116101a257806318160ddd1461023557806319a3c68d146102535780631e36aa631461028357806323b872dd146102a1576101c4565b8063044d1d4c146101c957806306fdde03146101e7578063095ea7b314610205575b600080fd5b6101d16105a7565b6040516101de919061202c565b60405180910390f35b6101ef6105ad565b6040516101fc91906120d7565b60405180910390f35b61021f600480360381019061021a9190612197565b61063f565b60405161022c91906121f2565b60405180910390f35b61023d610662565b60405161024a919061202c565b60405180910390f35b61026d6004803603810190610268919061220d565b61066c565b60405161027a91906121f2565b60405180910390f35b61028b61071a565b60405161029891906122f8565b60405180910390f35b6102bb60048036038101906102b6919061231a565b6107a8565b6040516102c891906121f2565b60405180910390f35b6102d96107d7565b6040516102e691906124fe565b60405180910390f35b6102f7610988565b604051610304919061202c565b60405180910390f35b610315610992565b60405161032291906122f8565b60405180910390f35b610333610a20565b604051610340919061253c565b60405180910390f35b610351610a29565b60405161035e919061202c565b60405180910390f35b610381600480360381019061037c9190612557565b610a51565b60405161038e9190612593565b60405180910390f35b61039f610a90565b6040516103ac919061202c565b60405180910390f35b6103cf60048036038101906103ca919061220d565b610a96565b6040516103dc919061202c565b60405180910390f35b6103ff60048036038101906103fa9190612721565b610ade565b005b61041b60048036038101906104169190612197565b610d90565b005b6104376004803603810190610432919061220d565b610f9b565b005b610441611018565b60405161044e91906120d7565b60405180910390f35b610471600480360381019061046c9190612197565b6110aa565b60405161047e91906121f2565b60405180910390f35b61048f6111f6565b60405161049c9190612593565b60405180910390f35b6104bf60048036038101906104ba9190612557565b61121a565b005b6104c9611290565b6040516104d6919061202c565b60405180910390f35b6104f960048036038101906104f4919061220d565b611296565b604051610506919061202c565b60405180910390f35b61052960048036038101906105249190612790565b61134a565b604051610536919061202c565b60405180910390f35b61055960048036038101906105549190612557565b6113d1565b6040516105669190612593565b60405180910390f35b61058960048036038101906105849190612557565b611410565b005b6105a560048036038101906105a09190612557565b61163d565b005b60075481565b6060600380546105bc906127ff565b80601f01602080910402602001604051908101604052809291908181526020018280546105e8906127ff565b80156106355780601f1061060a57610100808354040283529160200191610635565b820191906000526020600020905b81548152906001019060200180831161061857829003601f168201915b5050505050905090565b60008061064a61191f565b9050610657818585611927565b600191505092915050565b6000600254905090565b600080600090505b60098054905081101561070f578273ffffffffffffffffffffffffffffffffffffffff16600982815481106106ac576106ab612830565b5b9060005260206000200160009054906101000a900473ffffffffffffffffffffffffffffffffffffffff1673ffffffffffffffffffffffffffffffffffffffff16036106fc576001915050610715565b80806107079061288e565b915050610674565b50600090505b919050565b6060600980548060200260200160405190810160405280929190818152602001828054801561079e57602002820191906000526020600020905b8160009054906101000a900473ffffffffffffffffffffffffffffffffffffffff1673ffffffffffffffffffffffffffffffffffffffff1681526020019060010190808311610754575b5050505050905090565b6000806107b361191f565b90506107c0858285611939565b6107cb8585856119cd565b60019150509392505050565b6060600d805480602002602001604051908101604052809291908181526020016000905b8282101561097f57838290600052602060002090600502016040518060a00160405290816000820160009054906101000a900473ffffffffffffffffffffffffffffffffffffffff1673ffffffffffffffffffffffffffffffffffffffff1673ffffffffffffffffffffffffffffffffffffffff1681526020016001820160009054906101000a900473ffffffffffffffffffffffffffffffffffffffff1673ffffffffffffffffffffffffffffffffffffffff1673ffffffffffffffffffffffffffffffffffffffff168152602001600282015481526020016003820180546108e4906127ff565b80601f0160208091040260200160405190810160405280929190818152602001828054610910906127ff565b801561095d5780601f106109325761010080835404028352916020019161095d565b820191906000526020600020905b81548152906001019060200180831161094057829003601f168201915b50505050508152602001600482015481525050815260200190600101906107fb565b50505050905090565b6000600854905090565b6060600a805480602002602001604051908101604052809291908181526020018280548015610a1657602002820191906000526020600020905b8160009054906101000a900473ffffffffffffffffffffffffffffffffffffffff1673ffffffffffffffffffffffffffffffffffffffff16815260200190600101908083116109cc575b5050505050905090565b60006012905090565b60007f0000000000000000000000000000000000000000000000000000000000000000905090565b600a8181548110610a6157600080fd5b906000526020600020016000915054906101000a900473ffffffffffffffffffffffffffffffffffffffff1681565b60055481565b60008060008373ffffffffffffffffffffffffffffffffffffffff1673ffffffffffffffffffffffffffffffffffffffff168152602001908152602001600020549050919050565b60005b600a80549050811015610bf9573373ffffffffffffffffffffffffffffffffffffffff16600a8281548110610b1957610b18612830565b5b9060005260206000200160009054906101000a900473ffffffffffffffffffffffffffffffffffffffff1673ffffffffffffffffffffffffffffffffffffffff1603610be6573373ffffffffffffffffffffffffffffffffffffffff167f95e4151200d357a599dac39756b80fcd6d76fd3d5b74d6adef1dad12411f27e3604051610ba390612922565b60405180910390a26040517fc033214d000000000000000000000000000000000000000000000000000000008152600401610bdd90612922565b60405180910390fd5b8080610bf19061288e565b915050610ae1565b50600160086000828254610c0d9190612942565b92505081905550600d6040518060a001604052803373ffffffffffffffffffffffffffffffffffffffff1681526020018573ffffffffffffffffffffffffffffffffffffffff16815260200184815260200183815260200142815250908060018154018082558091505060019003906000526020600020906005020160009091909190915060008201518160000160006101000a81548173ffffffffffffffffffffffffffffffffffffffff021916908373ffffffffffffffffffffffffffffffffffffffff16021790555060208201518160010160006101000a81548173ffffffffffffffffffffffffffffffffffffffff021916908373ffffffffffffffffffffffffffffffffffffffff160217905550604082015181600201556060820151816003019081610d3f9190612b22565b506080820151816004015550507fc4b32d7ff75a51e487f3cbb5d3202f2efecca1f4c2b987e0039c1d3220b48a833384848442604051610d83959493929190612c49565b60405180910390a1505050565b60005b600a80549050811015610eab573373ffffffffffffffffffffffffffffffffffffffff16600a8281548110610dcb57610dca612830565b5b9060005260206000200160009054906101000a900473ffffffffffffffffffffffffffffffffffffffff1673ffffffffffffffffffffffffffffffffffffffff1603610e98573373ffffffffffffffffffffffffffffffffffffffff167f95e4151200d357a599dac39756b80fcd6d76fd3d5b74d6adef1dad12411f27e3604051610e5590612922565b60405180910390a26040517fc033214d000000000000000000000000000000000000000000000000000000008152600401610e8f90612922565b60405180910390fd5b8080610ea39061288e565b915050610d93565b50670de0b6b3a764000081610ec09190612ca3565b9050600754811115610f07576040517f08c379a0000000000000000000000000000000000000000000000000000000008152600401610efe90612d31565b60405180910390fd5b6009829080600181540180825580915050600190039060005260206000200160009091909190916101000a81548173ffffffffffffffffffffffffffffffffffffffff021916908373ffffffffffffffffffffffffffffffffffffffff1602179055506001600c6000828254610f7d9190612942565b92505081905550610f8e3382611ac1565b610f9782610f9b565b5050565b6000610fa682611296565b90506003811061101457600a829080600181540180825580915050600190039060005260206000200160009091909190916101000a81548173ffffffffffffffffffffffffffffffffffffffff021916908373ffffffffffffffffffffffffffffffffffffffff1602179055505b5050565b606060048054611027906127ff565b80601f0160208091040260200160405190810160405280929190818152602001828054611053906127ff565b80156110a05780601f10611075576101008083540402835291602001916110a0565b820191906000526020600020905b81548152906001019060200180831161108357829003601f168201915b5050505050905090565b600080600090505b600a805490508110156111ca573373ffffffffffffffffffffffffffffffffffffffff16600a82815481106110ea576110e9612830565b5b9060005260206000200160009054906101000a900473ffffffffffffffffffffffffffffffffffffffff1673ffffffffffffffffffffffffffffffffffffffff16036111b7573373ffffffffffffffffffffffffffffffffffffffff167f95e4151200d357a599dac39756b80fcd6d76fd3d5b74d6adef1dad12411f27e360405161117490612922565b60405180910390a26040517fc033214d0000000000000000000000000000000000000000000000000000000081526004016111ae90612922565b60405180910390fd5b80806111c29061288e565b9150506110b2565b50670de0b6b3a7640000826111df9190612ca3565b91506111eb8383611b4e565b506001905092915050565b7f000000000000000000000000000000000000000000000000000000000000000081565b670de0b6b3a76400008161122e9190612ca3565b905080600660008282546112429190612d51565b92505081905550806007600082825461125b9190612942565b9250508190555061128d337f0000000000000000000000000000000000000000000000000000000000000000836119cd565b50565b60065481565b6000806000905060005b600980549050811015611340578373ffffffffffffffffffffffffffffffffffffffff16600982815481106112d8576112d7612830565b5b9060005260206000200160009054906101000a900473ffffffffffffffffffffffffffffffffffffffff1673ffffffffffffffffffffffffffffffffffffffff160361132d5781806113299061288e565b9250505b80806113389061288e565b9150506112a0565b5080915050919050565b6000600160008473ffffffffffffffffffffffffffffffffffffffff1673ffffffffffffffffffffffffffffffffffffffff16815260200190815260200160002060008373ffffffffffffffffffffffffffffffffffffffff1673ffffffffffffffffffffffffffffffffffffffff16815260200190815260200160002054905092915050565b600981815481106113e157600080fd5b906000526020600020016000915054906101000a900473ffffffffffffffffffffffffffffffffffffffff1681565b60005b600a8054905081101561152b573373ffffffffffffffffffffffffffffffffffffffff16600a828154811061144b5761144a612830565b5b9060005260206000200160009054906101000a900473ffffffffffffffffffffffffffffffffffffffff1673ffffffffffffffffffffffffffffffffffffffff1603611518573373ffffffffffffffffffffffffffffffffffffffff167f95e4151200d357a599dac39756b80fcd6d76fd3d5b74d6adef1dad12411f27e36040516114d590612922565b60405180910390a26040517fc033214d00000000000000000000000000000000000000000000000000000000815260040161150f90612922565b60405180910390fd5b80806115239061288e565b915050611413565b50670de0b6b3a7640000816115409190612ca3565b905061154b3361066c565b156115dc57606460148261155f9190612ca3565b6115699190612db4565b600b81905550606460508261157e9190612ca3565b6115889190612db4565b9050806006600082825461159c9190612d51565b9250508190555080600560008282546115b59190612942565b92505081905550600b54600760008282546115d09190612942565b9250508190555061163a565b80600660008282546115ee9190612d51565b9250508190555080600560008282546116079190612942565b92505081905550611639337f0000000000000000000000000000000000000000000000000000000000000000836119cd565b5b50565b60005b600a80549050811015611758573373ffffffffffffffffffffffffffffffffffffffff16600a828154811061167857611677612830565b5b9060005260206000200160009054906101000a900473ffffffffffffffffffffffffffffffffffffffff1673ffffffffffffffffffffffffffffffffffffffff1603611745573373ffffffffffffffffffffffffffffffffffffffff167f95e4151200d357a599dac39756b80fcd6d76fd3d5b74d6adef1dad12411f27e360405161170290612922565b60405180910390a26040517fc033214d00000000000000000000000000000000000000000000000000000000815260040161173c90612922565b60405180910390fd5b80806117509061288e565b915050611640565b50670de0b6b3a76400008161176d9190612ca3565b90506117783361066c565b15611879576005548111156117c2576040517f08c379a00000000000000000000000000000000000000000000000000000000081526004016117b990612e31565b60405180910390fd5b60646014826117d19190612ca3565b6117db9190612db4565b600b8190555060646050826117f09190612ca3565b6117fa9190612db4565b9050806005600082825461180e9190612d51565b9250508190555080600660008282546118279190612942565b92505081905550600b54600760008282546118429190612942565b925050819055506118747f000000000000000000000000000000000000000000000000000000000000000033836119cd565b61191c565b6005548111156118be576040517f08c379a00000000000000000000000000000000000000000000000000000000081526004016118b590612e31565b60405180910390fd5b80600560008282546118d09190612d51565b9250508190555080600660008282546118e99190612942565b9250508190555061191b7f000000000000000000000000000000000000000000000000000000000000000033836119cd565b5b50565b600033905090565b6119348383836001611b71565b505050565b6000611945848461134a565b90507fffffffffffffffffffffffffffffffffffffffffffffffffffffffffffffffff81146119c757818110156119b7578281836040517ffb8f41b20000000000000000000000000000000000000000000000000000000081526004016119ae93929190612e51565b60405180910390fd5b6119c684848484036000611b71565b5b50505050565b600073ffffffffffffffffffffffffffffffffffffffff168373ffffffffffffffffffffffffffffffffffffffff1603611a3f5760006040517f96c6fd1e000000000000000000000000000000000000000000000000000000008152600401611a369190612593565b60405180910390fd5b600073ffffffffffffffffffffffffffffffffffffffff168273ffffffffffffffffffffffffffffffffffffffff1603611ab15760006040517fec442f05000000000000000000000000000000000000000000000000000000008152600401611aa89190612593565b60405180910390fd5b611abc838383611d48565b505050565b600754811115611b06576040517f08c379a0000000000000000000000000000000000000000000000000000000008152600401611afd90612d31565b60405180910390fd5b8060076000828254611b189190612d51565b92505081905550611b4a7f000000000000000000000000000000000000000000000000000000000000000083836119cd565b5050565b600080611b5961191f565b9050611b668185856119cd565b600191505092915050565b600073ffffffffffffffffffffffffffffffffffffffff168473ffffffffffffffffffffffffffffffffffffffff1603611be35760006040517fe602df05000000000000000000000000000000000000000000000000000000008152600401611bda9190612593565b60405180910390fd5b600073ffffffffffffffffffffffffffffffffffffffff168373ffffffffffffffffffffffffffffffffffffffff1603611c555760006040517f94280d62000000000000000000000000000000000000000000000000000000008152600401611c4c9190612593565b60405180910390fd5b81600160008673ffffffffffffffffffffffffffffffffffffffff1673ffffffffffffffffffffffffffffffffffffffff16815260200190815260200160002060008573ffffffffffffffffffffffffffffffffffffffff1673ffffffffffffffffffffffffffffffffffffffff168152602001908152602001600020819055508015611d42578273ffffffffffffffffffffffffffffffffffffffff168473ffffffffffffffffffffffffffffffffffffffff167f8c5be1e5ebec7d5bd14f71427d1e84f3dd0314c0f7b2291e5b200ac8c7c3b92584604051611d39919061202c565b60405180910390a35b50505050565b611d53838383611dee565b600073ffffffffffffffffffffffffffffffffffffffff168373ffffffffffffffffffffffffffffffffffffffff1603611de9576000611d91610a29565b90506000611d9d610662565b905081811115611de65780826040517f9e79f854000000000000000000000000000000000000000000000000000000008152600401611ddd929190612e88565b60405180910390fd5b50505b505050565b600073ffffffffffffffffffffffffffffffffffffffff168373ffffffffffffffffffffffffffffffffffffffff1603611e40578060026000828254611e349190612942565b92505081905550611f13565b60008060008573ffffffffffffffffffffffffffffffffffffffff1673ffffffffffffffffffffffffffffffffffffffff16815260200190815260200160002054905081811015611ecc578381836040517fe450d38c000000000000000000000000000000000000000000000000000000008152600401611ec393929190612e51565b60405180910390fd5b8181036000808673ffffffffffffffffffffffffffffffffffffffff1673ffffffffffffffffffffffffffffffffffffffff16815260200190815260200160002081905550505b600073ffffffffffffffffffffffffffffffffffffffff168273ffffffffffffffffffffffffffffffffffffffff1603611f5c5780600260008282540392505081905550611fa9565b806000808473ffffffffffffffffffffffffffffffffffffffff1673ffffffffffffffffffffffffffffffffffffffff168152602001908152602001600020600082825401925050819055505b8173ffffffffffffffffffffffffffffffffffffffff168373ffffffffffffffffffffffffffffffffffffffff167fddf252ad1be2c89b69c2b068fc378daa952ba7f163c4a11628f55a4df523b3ef83604051612006919061202c565b60405180910390a3505050565b6000819050919050565b61202681612013565b82525050565b6000602082019050612041600083018461201d565b92915050565b600081519050919050565b600082825260208201905092915050565b60005b83811015612081578082015181840152602081019050612066565b60008484015250505050565b6000601f19601f8301169050919050565b60006120a982612047565b6120b38185612052565b93506120c3818560208601612063565b6120cc8161208d565b840191505092915050565b600060208201905081810360008301526120f1818461209e565b905092915050565b6000604051905090565b600080fd5b600080fd5b600073ffffffffffffffffffffffffffffffffffffffff82169050919050565b60006121388261210d565b9050919050565b6121488161212d565b811461215357600080fd5b50565b6000813590506121658161213f565b92915050565b61217481612013565b811461217f57600080fd5b50565b6000813590506121918161216b565b92915050565b600080604083850312156121ae576121ad612103565b5b60006121bc85828601612156565b92505060206121cd85828601612182565b9150509250929050565b60008115159050919050565b6121ec816121d7565b82525050565b600060208201905061220760008301846121e3565b92915050565b60006020828403121561222357612222612103565b5b600061223184828501612156565b91505092915050565b600081519050919050565b600082825260208201905092915050565b6000819050602082019050919050565b61226f8161212d565b82525050565b60006122818383612266565b60208301905092915050565b6000602082019050919050565b60006122a58261223a565b6122af8185612245565b93506122ba83612256565b8060005b838110156122eb5781516122d28882612275565b97506122dd8361228d565b9250506001810190506122be565b5085935050505092915050565b60006020820190508181036000830152612312818461229a565b905092915050565b60008060006060848603121561233357612332612103565b5b600061234186828701612156565b935050602061235286828701612156565b925050604061236386828701612182565b9150509250925092565b600081519050919050565b600082825260208201905092915050565b6000819050602082019050919050565b6123a281612013565b82525050565b600082825260208201905092915050565b60006123c482612047565b6123ce81856123a8565b93506123de818560208601612063565b6123e78161208d565b840191505092915050565b600060a08301600083015161240a6000860182612266565b50602083015161241d6020860182612266565b5060408301516124306040860182612399565b506060830151848203606086015261244882826123b9565b915050608083015161245d6080860182612399565b508091505092915050565b600061247483836123f2565b905092915050565b6000602082019050919050565b60006124948261236d565b61249e8185612378565b9350836020820285016124b085612389565b8060005b858110156124ec57848403895281516124cd8582612468565b94506124d88361247c565b925060208a019950506001810190506124b4565b50829750879550505050505092915050565b600060208201905081810360008301526125188184612489565b905092915050565b600060ff82169050919050565b61253681612520565b82525050565b6000602082019050612551600083018461252d565b92915050565b60006020828403121561256d5761256c612103565b5b600061257b84828501612182565b91505092915050565b61258d8161212d565b82525050565b60006020820190506125a86000830184612584565b92915050565b60006125b98261210d565b9050919050565b6125c9816125ae565b81146125d457600080fd5b50565b6000813590506125e6816125c0565b92915050565b600080fd5b600080fd5b7f4e487b7100000000000000000000000000000000000000000000000000000000600052604160045260246000fd5b61262e8261208d565b810181811067ffffffffffffffff8211171561264d5761264c6125f6565b5b80604052505050565b60006126606120f9565b905061266c8282612625565b919050565b600067ffffffffffffffff82111561268c5761268b6125f6565b5b6126958261208d565b9050602081019050919050565b82818337600083830152505050565b60006126c46126bf84612671565b612656565b9050828152602081018484840111156126e0576126df6125f1565b5b6126eb8482856126a2565b509392505050565b600082601f830112612708576127076125ec565b5b81356127188482602086016126b1565b91505092915050565b60008060006060848603121561273a57612739612103565b5b6000612748868287016125d7565b935050602061275986828701612182565b925050604084013567ffffffffffffffff81111561277a57612779612108565b5b612786868287016126f3565b9150509250925092565b600080604083850312156127a7576127a6612103565b5b60006127b585828601612156565b92505060206127c685828601612156565b9150509250929050565b7f4e487b7100000000000000000000000000000000000000000000000000000000600052602260045260246000fd5b6000600282049050600182168061281757607f821691505b60208210810361282a576128296127d0565b5b50919050565b7f4e487b7100000000000000000000000000000000000000000000000000000000600052603260045260246000fd5b7f4e487b7100000000000000000000000000000000000000000000000000000000600052601160045260246000fd5b600061289982612013565b91507fffffffffffffffffffffffffffffffffffffffffffffffffffffffffffffffff82036128cb576128ca61285f565b5b600182019050919050565b7f596f7572206163636f756e7420686173206265656e2066726f7a656e00000000600082015250565b600061290c601c83612052565b9150612917826128d6565b602082019050919050565b6000602082019050818103600083015261293b816128ff565b9050919050565b600061294d82612013565b915061295883612013565b92508282019050808211156129705761296f61285f565b5b92915050565b60008190508160005260206000209050919050565b60006020601f8301049050919050565b600082821b905092915050565b6000600883026129d87fffffffffffffffffffffffffffffffffffffffffffffffffffffffffffffffff8261299b565b6129e2868361299b565b95508019841693508086168417925050509392505050565b6000819050919050565b6000612a1f612a1a612a1584612013565b6129fa565b612013565b9050919050565b6000819050919050565b612a3983612a04565b612a4d612a4582612a26565b8484546129a8565b825550505050565b600090565b612a62612a55565b612a6d818484612a30565b505050565b5b81811015612a9157612a86600082612a5a565b600181019050612a73565b5050565b601f821115612ad657612aa781612976565b612ab08461298b565b81016020851015612abf578190505b612ad3612acb8561298b565b830182612a72565b50505b505050565b600082821c905092915050565b6000612af960001984600802612adb565b1980831691505092915050565b6000612b128383612ae8565b9150826002028217905092915050565b612b2b82612047565b67ffffffffffffffff811115612b4457612b436125f6565b5b612b4e82546127ff565b612b59828285612a95565b600060209050601f831160018114612b8c5760008415612b7a578287015190505b612b848582612b06565b865550612bec565b601f198416612b9a86612976565b60005b82811015612bc257848901518255600182019150602085019450602081019050612b9d565b86831015612bdf5784890151612bdb601f891682612ae8565b8355505b6001600288020188555050505b505050505050565b6000612c0f612c0a612c058461210d565b6129fa565b61210d565b9050919050565b6000612c2182612bf4565b9050919050565b6000612c3382612c16565b9050919050565b612c4381612c28565b82525050565b600060a082019050612c5e6000830188612584565b612c6b6020830187612c3a565b612c78604083018661201d565b8181036060830152612c8a818561209e565b9050612c99608083018461201d565b9695505050505050565b6000612cae82612013565b9150612cb983612013565b9250828202612cc781612013565b91508282048414831517612cde57612cdd61285f565b5b5092915050565b7f496e73756666696369656e742066756e6420696e2074686520706f6f6c000000600082015250565b6000612d1b601d83612052565b9150612d2682612ce5565b602082019050919050565b60006020820190508181036000830152612d4a81612d0e565b9050919050565b6000612d5c82612013565b9150612d6783612013565b9250828203905081811115612d7f57612d7e61285f565b5b92915050565b7f4e487b7100000000000000000000000000000000000000000000000000000000600052601260045260246000fd5b6000612dbf82612013565b9150612dca83612013565b925082612dda57612dd9612d85565b5b828204905092915050565b7f496e73756666696369656e7420746f6b656e20737570706c7900000000000000600082015250565b6000612e1b601983612052565b9150612e2682612de5565b602082019050919050565b60006020820190508181036000830152612e4a81612e0e565b9050919050565b6000606082019050612e666000830186612584565b612e73602083018561201d565b612e80604083018461201d565b949350505050565b6000604082019050612e9d600083018561201d565b612eaa602083018461201d565b939250505056fea2646970667358221220d99c00da68672599b3f28c6eb610c776a21240a46b735654b9d3414f4bee3dc264736f6c63430008140033","opcodes":"PUSH1 0xC0 PUSH1 0x40 MSTORE CALLVALUE DUP1 ISZERO PUSH3 0x11 JUMPI PUSH1 0x0 DUP1 REVERT JUMPDEST POP PUSH1 0x40 MLOAD PUSH3 0x3A62 CODESIZE SUB DUP1 PUSH3 0x3A62 DUP4 CODECOPY DUP2 DUP2 ADD PUSH1 0x40 MSTORE DUP2 ADD SWAP1 PUSH3 0x37 SWAP2 SWAP1 PUSH3 0x59A JUMP JUMPDEST PUSH8 0xDE0B6B3A7640000 DUP2 PUSH3 0x4D SWAP2 SWAP1 PUSH3 0x5FB JUMP JUMPDEST PUSH1 0x40 MLOAD DUP1 PUSH1 0x40 ADD PUSH1 0x40 MSTORE DUP1 PUSH1 0x7 DUP2 MSTORE PUSH1 0x20 ADD PUSH32 0x466F746572726500000000000000000000000000000000000000000000000000 DUP2 MSTORE POP PUSH1 0x40 MLOAD DUP1 PUSH1 0x40 ADD PUSH1 0x40 MSTORE DUP1 PUSH1 0x4 DUP2 MSTORE PUSH1 0x20 ADD PUSH32 0x464F544500000000000000000000000000000000000000000000000000000000 DUP2 MSTORE POP DUP2 PUSH1 0x3 SWAP1 DUP2 PUSH3 0xCA SWAP2 SWAP1 PUSH3 0x8B6 JUMP JUMPDEST POP DUP1 PUSH1 0x4 SWAP1 DUP2 PUSH3 0xDC SWAP2 SWAP1 PUSH3 0x8B6 JUMP JUMPDEST POP POP POP PUSH1 0x0 DUP2 SUB PUSH3 0x128 JUMPI PUSH1 0x0 PUSH1 0x40 MLOAD PUSH32 0x392E1E2700000000000000000000000000000000000000000000000000000000 DUP2 MSTORE PUSH1 0x4 ADD PUSH3 0x11F SWAP2 SWAP1 PUSH3 0x9E0 JUMP JUMPDEST PUSH1 0x40 MLOAD DUP1 SWAP2 SUB SWAP1 REVERT JUMPDEST DUP1 PUSH1 0x80 DUP2 DUP2 MSTORE POP POP POP CALLER PUSH20 0xFFFFFFFFFFFFFFFFFFFFFFFFFFFFFFFFFFFFFFFF AND PUSH1 0xA0 DUP2 PUSH20 0xFFFFFFFFFFFFFFFFFFFFFFFFFFFFFFFFFFFFFFFF AND DUP2 MSTORE POP POP PUSH1 0x0 PUSH13 0x183BDAC6AE9BC1C8CC0000000 SWAP1 POP PUSH1 0x0 PUSH12 0x60EF6B1ABA6F072330000000 SWAP1 POP DUP2 PUSH1 0x5 DUP2 SWAP1 SSTORE POP DUP1 PUSH1 0x7 DUP2 SWAP1 SSTORE POP PUSH3 0x1AA PUSH1 0xA0 MLOAD DUP4 PUSH3 0x1C7 PUSH1 0x20 SHL PUSH1 0x20 SHR JUMP JUMPDEST PUSH3 0x1BE PUSH1 0xA0 MLOAD DUP3 PUSH3 0x1C7 PUSH1 0x20 SHL PUSH1 0x20 SHR JUMP JUMPDEST POP POP POP PUSH3 0xB32 JUMP JUMPDEST PUSH1 0x0 PUSH20 0xFFFFFFFFFFFFFFFFFFFFFFFFFFFFFFFFFFFFFFFF AND DUP3 PUSH20 0xFFFFFFFFFFFFFFFFFFFFFFFFFFFFFFFFFFFFFFFF AND SUB PUSH3 0x23C JUMPI PUSH1 0x0 PUSH1 0x40 MLOAD PUSH32 0xEC442F0500000000000000000000000000000000000000000000000000000000 DUP2 MSTORE PUSH1 0x4 ADD PUSH3 0x233 SWAP2 SWAP1 PUSH3 0xA42 JUMP JUMPDEST PUSH1 0x40 MLOAD DUP1 SWAP2 SUB SWAP1 REVERT JUMPDEST PUSH3 0x250 PUSH1 0x0 DUP4 DUP4 PUSH3 0x254 PUSH1 0x20 SHL PUSH1 0x20 SHR JUMP JUMPDEST POP POP JUMP JUMPDEST PUSH3 0x267 DUP4 DUP4 DUP4 PUSH3 0x316 PUSH1 0x20 SHL PUSH1 0x20 SHR JUMP JUMPDEST PUSH1 0x0 PUSH20 0xFFFFFFFFFFFFFFFFFFFFFFFFFFFFFFFFFFFFFFFF AND DUP4 PUSH20 0xFFFFFFFFFFFFFFFFFFFFFFFFFFFFFFFFFFFFFFFF AND SUB PUSH3 0x311 JUMPI PUSH1 0x0 PUSH3 0x2AE PUSH3 0x546 PUSH1 0x20 SHL PUSH1 0x20 SHR JUMP JUMPDEST SWAP1 POP PUSH1 0x0 PUSH3 0x2C2 PUSH3 0x550 PUSH1 0x20 SHL PUSH1 0x20 SHR JUMP JUMPDEST SWAP1 POP DUP2 DUP2 GT ISZERO PUSH3 0x30E JUMPI DUP1 DUP3 PUSH1 0x40 MLOAD PUSH32 0x9E79F85400000000000000000000000000000000000000000000000000000000 DUP2 MSTORE PUSH1 0x4 ADD PUSH3 0x305 SWAP3 SWAP2 SWAP1 PUSH3 0xA70 JUMP JUMPDEST PUSH1 0x40 MLOAD DUP1 SWAP2 SUB SWAP1 REVERT JUMPDEST POP POP JUMPDEST POP POP POP JUMP JUMPDEST PUSH1 0x0 PUSH20 0xFFFFFFFFFFFFFFFFFFFFFFFFFFFFFFFFFFFFFFFF AND DUP4 PUSH20 0xFFFFFFFFFFFFFFFFFFFFFFFFFFFFFFFFFFFFFFFF AND SUB PUSH3 0x36C JUMPI DUP1 PUSH1 0x2 PUSH1 0x0 DUP3 DUP3 SLOAD PUSH3 0x35F SWAP2 SWAP1 PUSH3 0xA9D JUMP JUMPDEST SWAP3 POP POP DUP2 SWAP1 SSTORE POP PUSH3 0x442 JUMP JUMPDEST PUSH1 0x0 DUP1 PUSH1 0x0 DUP6 PUSH20 0xFFFFFFFFFFFFFFFFFFFFFFFFFFFFFFFFFFFFFFFF AND PUSH20 0xFFFFFFFFFFFFFFFFFFFFFFFFFFFFFFFFFFFFFFFF AND DUP2 MSTORE PUSH1 0x20 ADD SWAP1 DUP2 MSTORE PUSH1 0x20 ADD PUSH1 0x0 KECCAK256 SLOAD SWAP1 POP DUP2 DUP2 LT ISZERO PUSH3 0x3FB JUMPI DUP4 DUP2 DUP4 PUSH1 0x40 MLOAD PUSH32 0xE450D38C00000000000000000000000000000000000000000000000000000000 DUP2 MSTORE PUSH1 0x4 ADD PUSH3 0x3F2 SWAP4 SWAP3 SWAP2 SWAP1 PUSH3 0xAD8 JUMP JUMPDEST PUSH1 0x40 MLOAD DUP1 SWAP2 SUB SWAP1 REVERT JUMPDEST DUP2 DUP2 SUB PUSH1 0x0 DUP1 DUP7 PUSH20 0xFFFFFFFFFFFFFFFFFFFFFFFFFFFFFFFFFFFFFFFF AND PUSH20 0xFFFFFFFFFFFFFFFFFFFFFFFFFFFFFFFFFFFFFFFF AND DUP2 MSTORE PUSH1 0x20 ADD SWAP1 DUP2 MSTORE PUSH1 0x20 ADD PUSH1 0x0 KECCAK256 DUP2 SWAP1 SSTORE POP POP JUMPDEST PUSH1 0x0 PUSH20 0xFFFFFFFFFFFFFFFFFFFFFFFFFFFFFFFFFFFFFFFF AND DUP3 PUSH20 0xFFFFFFFFFFFFFFFFFFFFFFFFFFFFFFFFFFFFFFFF AND SUB PUSH3 0x48D JUMPI DUP1 PUSH1 0x2 PUSH1 0x0 DUP3 DUP3 SLOAD SUB SWAP3 POP POP DUP2 SWAP1 SSTORE POP PUSH3 0x4DA JUMP JUMPDEST DUP1 PUSH1 0x0 DUP1 DUP5 PUSH20 0xFFFFFFFFFFFFFFFFFFFFFFFFFFFFFFFFFFFFFFFF AND PUSH20 0xFFFFFFFFFFFFFFFFFFFFFFFFFFFFFFFFFFFFFFFF AND DUP2 MSTORE PUSH1 0x20 ADD SWAP1 DUP2 MSTORE PUSH1 0x20 ADD PUSH1 0x0 KECCAK256 PUSH1 0x0 DUP3 DUP3 SLOAD ADD SWAP3 POP POP DUP2 SWAP1 SSTORE POP JUMPDEST DUP2 PUSH20 0xFFFFFFFFFFFFFFFFFFFFFFFFFFFFFFFFFFFFFFFF AND DUP4 PUSH20 0xFFFFFFFFFFFFFFFFFFFFFFFFFFFFFFFFFFFFFFFF AND PUSH32 0xDDF252AD1BE2C89B69C2B068FC378DAA952BA7F163C4A11628F55A4DF523B3EF DUP4 PUSH1 0x40 MLOAD PUSH3 0x539 SWAP2 SWAP1 PUSH3 0xB15 JUMP JUMPDEST PUSH1 0x40 MLOAD DUP1 SWAP2 SUB SWAP1 LOG3 POP POP POP JUMP JUMPDEST PUSH1 0x0 PUSH1 0x80 MLOAD SWAP1 POP SWAP1 JUMP JUMPDEST PUSH1 0x0 PUSH1 0x2 SLOAD SWAP1 POP SWAP1 JUMP JUMPDEST PUSH1 0x0 DUP1 REVERT JUMPDEST PUSH1 0x0 DUP2 SWAP1 POP SWAP2 SWAP1 POP JUMP JUMPDEST PUSH3 0x574 DUP2 PUSH3 0x55F JUMP JUMPDEST DUP2 EQ PUSH3 0x580 JUMPI PUSH1 0x0 DUP1 REVERT JUMPDEST POP JUMP JUMPDEST PUSH1 0x0 DUP2 MLOAD SWAP1 POP PUSH3 0x594 DUP2 PUSH3 0x569 JUMP JUMPDEST SWAP3 SWAP2 POP POP JUMP JUMPDEST PUSH1 0x0 PUSH1 0x20 DUP3 DUP5 SUB SLT ISZERO PUSH3 0x5B3 JUMPI PUSH3 0x5B2 PUSH3 0x55A JUMP JUMPDEST JUMPDEST PUSH1 0x0 PUSH3 0x5C3 DUP5 DUP3 DUP6 ADD PUSH3 0x583 JUMP JUMPDEST SWAP2 POP POP SWAP3 SWAP2 POP POP JUMP JUMPDEST PUSH32 0x4E487B7100000000000000000000000000000000000000000000000000000000 PUSH1 0x0 MSTORE PUSH1 0x11 PUSH1 0x4 MSTORE PUSH1 0x24 PUSH1 0x0 REVERT JUMPDEST PUSH1 0x0 PUSH3 0x608 DUP3 PUSH3 0x55F JUMP JUMPDEST SWAP2 POP PUSH3 0x615 DUP4 PUSH3 0x55F JUMP JUMPDEST SWAP3 POP DUP3 DUP3 MUL PUSH3 0x625 DUP2 PUSH3 0x55F JUMP JUMPDEST SWAP2 POP DUP3 DUP3 DIV DUP5 EQ DUP4 ISZERO OR PUSH3 0x63F JUMPI PUSH3 0x63E PUSH3 0x5CC JUMP JUMPDEST JUMPDEST POP SWAP3 SWAP2 POP POP JUMP JUMPDEST PUSH1 0x0 DUP2 MLOAD SWAP1 POP SWAP2 SWAP1 POP JUMP JUMPDEST PUSH32 0x4E487B7100000000000000000000000000000000000000000000000000000000 PUSH1 0x0 MSTORE PUSH1 0x41 PUSH1 0x4 MSTORE PUSH1 0x24 PUSH1 0x0 REVERT JUMPDEST PUSH32 0x4E487B7100000000000000000000000000000000000000000000000000000000 PUSH1 0x0 MSTORE PUSH1 0x22 PUSH1 0x4 MSTORE PUSH1 0x24 PUSH1 0x0 REVERT JUMPDEST PUSH1 0x0 PUSH1 0x2 DUP3 DIV SWAP1 POP PUSH1 0x1 DUP3 AND DUP1 PUSH3 0x6C8 JUMPI PUSH1 0x7F DUP3 AND SWAP2 POP JUMPDEST PUSH1 0x20 DUP3 LT DUP2 SUB PUSH3 0x6DE JUMPI PUSH3 0x6DD PUSH3 0x680 JUMP JUMPDEST JUMPDEST POP SWAP2 SWAP1 POP JUMP JUMPDEST PUSH1 0x0 DUP2 SWAP1 POP DUP2 PUSH1 0x0 MSTORE PUSH1 0x20 PUSH1 0x0 KECCAK256 SWAP1 POP SWAP2 SWAP1 POP JUMP JUMPDEST PUSH1 0x0 PUSH1 0x20 PUSH1 0x1F DUP4 ADD DIV SWAP1 POP SWAP2 SWAP1 POP JUMP JUMPDEST PUSH1 0x0 DUP3 DUP3 SHL SWAP1 POP SWAP3 SWAP2 POP POP JUMP JUMPDEST PUSH1 0x0 PUSH1 0x8 DUP4 MUL PUSH3 0x748 PUSH32 0xFFFFFFFFFFFFFFFFFFFFFFFFFFFFFFFFFFFFFFFFFFFFFFFFFFFFFFFFFFFFFFFF DUP3 PUSH3 0x709 JUMP JUMPDEST PUSH3 0x754 DUP7 DUP4 PUSH3 0x709 JUMP JUMPDEST SWAP6 POP DUP1 NOT DUP5 AND SWAP4 POP DUP1 DUP7 AND DUP5 OR SWAP3 POP POP POP SWAP4 SWAP3 POP POP POP JUMP JUMPDEST PUSH1 0x0 DUP2 SWAP1 POP SWAP2 SWAP1 POP JUMP JUMPDEST PUSH1 0x0 PUSH3 0x797 PUSH3 0x791 PUSH3 0x78B DUP5 PUSH3 0x55F JUMP JUMPDEST PUSH3 0x76C JUMP JUMPDEST PUSH3 0x55F JUMP JUMPDEST SWAP1 POP SWAP2 SWAP1 POP JUMP JUMPDEST PUSH1 0x0 DUP2 SWAP1 POP SWAP2 SWAP1 POP JUMP JUMPDEST PUSH3 0x7B3 DUP4 PUSH3 0x776 JUMP JUMPDEST PUSH3 0x7CB PUSH3 0x7C2 DUP3 PUSH3 0x79E JUMP JUMPDEST DUP5 DUP5 SLOAD PUSH3 0x716 JUMP JUMPDEST DUP3 SSTORE POP POP POP POP JUMP JUMPDEST PUSH1 0x0 SWAP1 JUMP JUMPDEST PUSH3 0x7E2 PUSH3 0x7D3 JUMP JUMPDEST PUSH3 0x7EF DUP2 DUP5 DUP5 PUSH3 0x7A8 JUMP JUMPDEST POP POP POP JUMP JUMPDEST JUMPDEST DUP2 DUP2 LT ISZERO PUSH3 0x817 JUMPI PUSH3 0x80B PUSH1 0x0 DUP3 PUSH3 0x7D8 JUMP JUMPDEST PUSH1 0x1 DUP2 ADD SWAP1 POP PUSH3 0x7F5 JUMP JUMPDEST POP POP JUMP JUMPDEST PUSH1 0x1F DUP3 GT ISZERO PUSH3 0x866 JUMPI PUSH3 0x830 DUP2 PUSH3 0x6E4 JUMP JUMPDEST PUSH3 0x83B DUP5 PUSH3 0x6F9 JUMP JUMPDEST DUP2 ADD PUSH1 0x20 DUP6 LT ISZERO PUSH3 0x84B JUMPI DUP2 SWAP1 POP JUMPDEST PUSH3 0x863 PUSH3 0x85A DUP6 PUSH3 0x6F9 JUMP JUMPDEST DUP4 ADD DUP3 PUSH3 0x7F4 JUMP JUMPDEST POP POP JUMPDEST POP POP POP JUMP JUMPDEST PUSH1 0x0 DUP3 DUP3 SHR SWAP1 POP SWAP3 SWAP2 POP POP JUMP JUMPDEST PUSH1 0x0 PUSH3 0x88B PUSH1 0x0 NOT DUP5 PUSH1 0x8 MUL PUSH3 0x86B JUMP JUMPDEST NOT DUP1 DUP4 AND SWAP2 POP POP SWAP3 SWAP2 POP POP JUMP JUMPDEST PUSH1 0x0 PUSH3 0x8A6 DUP4 DUP4 PUSH3 0x878 JUMP JUMPDEST SWAP2 POP DUP3 PUSH1 0x2 MUL DUP3 OR SWAP1 POP SWAP3 SWAP2 POP POP JUMP JUMPDEST PUSH3 0x8C1 DUP3 PUSH3 0x646 JUMP JUMPDEST PUSH8 0xFFFFFFFFFFFFFFFF DUP2 GT ISZERO PUSH3 0x8DD JUMPI PUSH3 0x8DC PUSH3 0x651 JUMP JUMPDEST JUMPDEST PUSH3 0x8E9 DUP3 SLOAD PUSH3 0x6AF JUMP JUMPDEST PUSH3 0x8F6 DUP3 DUP3 DUP6 PUSH3 0x81B JUMP JUMPDEST PUSH1 0x0 PUSH1 0x20 SWAP1 POP PUSH1 0x1F DUP4 GT PUSH1 0x1 DUP2 EQ PUSH3 0x92E JUMPI PUSH1 0x0 DUP5 ISZERO PUSH3 0x919 JUMPI DUP3 DUP8 ADD MLOAD SWAP1 POP JUMPDEST PUSH3 0x925 DUP6 DUP3 PUSH3 0x898 JUMP JUMPDEST DUP7 SSTORE POP PUSH3 0x995 JUMP JUMPDEST PUSH1 0x1F NOT DUP5 AND PUSH3 0x93E DUP7 PUSH3 0x6E4 JUMP JUMPDEST PUSH1 0x0 JUMPDEST DUP3 DUP2 LT ISZERO PUSH3 0x968 JUMPI DUP5 DUP10 ADD MLOAD DUP3 SSTORE PUSH1 0x1 DUP3 ADD SWAP2 POP PUSH1 0x20 DUP6 ADD SWAP5 POP PUSH1 0x20 DUP2 ADD SWAP1 POP PUSH3 0x941 JUMP JUMPDEST DUP7 DUP4 LT ISZERO PUSH3 0x988 JUMPI DUP5 DUP10 ADD MLOAD PUSH3 0x984 PUSH1 0x1F DUP10 AND DUP3 PUSH3 0x878 JUMP JUMPDEST DUP4 SSTORE POP JUMPDEST PUSH1 0x1 PUSH1 0x2 DUP9 MUL ADD DUP9 SSTORE POP POP POP JUMPDEST POP POP POP POP POP POP JUMP JUMPDEST PUSH1 0x0 DUP2 SWAP1 POP SWAP2 SWAP1 POP JUMP JUMPDEST PUSH1 0x0 PUSH3 0x9C8 PUSH3 0x9C2 PUSH3 0x9BC DUP5 PUSH3 0x99D JUMP JUMPDEST PUSH3 0x76C JUMP JUMPDEST PUSH3 0x55F JUMP JUMPDEST SWAP1 POP SWAP2 SWAP1 POP JUMP JUMPDEST PUSH3 0x9DA DUP2 PUSH3 0x9A7 JUMP JUMPDEST DUP3 MSTORE POP POP JUMP JUMPDEST PUSH1 0x0 PUSH1 0x20 DUP3 ADD SWAP1 POP PUSH3 0x9F7 PUSH1 0x0 DUP4 ADD DUP5 PUSH3 0x9CF JUMP JUMPDEST SWAP3 SWAP2 POP POP JUMP JUMPDEST PUSH1 0x0 PUSH20 0xFFFFFFFFFFFFFFFFFFFFFFFFFFFFFFFFFFFFFFFF DUP3 AND SWAP1 POP SWAP2 SWAP1 POP JUMP JUMPDEST PUSH1 0x0 PUSH3 0xA2A DUP3 PUSH3 0x9FD JUMP JUMPDEST SWAP1 POP SWAP2 SWAP1 POP JUMP JUMPDEST PUSH3 0xA3C DUP2 PUSH3 0xA1D JUMP JUMPDEST DUP3 MSTORE POP POP JUMP JUMPDEST PUSH1 0x0 PUSH1 0x20 DUP3 ADD SWAP1 POP PUSH3 0xA59 PUSH1 0x0 DUP4 ADD DUP5 PUSH3 0xA31 JUMP JUMPDEST SWAP3 SWAP2 POP POP JUMP JUMPDEST PUSH3 0xA6A DUP2 PUSH3 0x55F JUMP JUMPDEST DUP3 MSTORE POP POP JUMP JUMPDEST PUSH1 0x0 PUSH1 0x40 DUP3 ADD SWAP1 POP PUSH3 0xA87 PUSH1 0x0 DUP4 ADD DUP6 PUSH3 0xA5F JUMP JUMPDEST PUSH3 0xA96 PUSH1 0x20 DUP4 ADD DUP5 PUSH3 0xA5F JUMP JUMPDEST SWAP4 SWAP3 POP POP POP JUMP JUMPDEST PUSH1 0x0 PUSH3 0xAAA DUP3 PUSH3 0x55F JUMP JUMPDEST SWAP2 POP PUSH3 0xAB7 DUP4 PUSH3 0x55F JUMP JUMPDEST SWAP3 POP DUP3 DUP3 ADD SWAP1 POP DUP1 DUP3 GT ISZERO PUSH3 0xAD2 JUMPI PUSH3 0xAD1 PUSH3 0x5CC JUMP JUMPDEST JUMPDEST SWAP3 SWAP2 POP POP JUMP JUMPDEST PUSH1 0x0 PUSH1 0x60 DUP3 ADD SWAP1 POP PUSH3 0xAEF PUSH1 0x0 DUP4 ADD DUP7 PUSH3 0xA31 JUMP JUMPDEST PUSH3 0xAFE PUSH1 0x20 DUP4 ADD DUP6 PUSH3 0xA5F JUMP JUMPDEST PUSH3 0xB0D PUSH1 0x40 DUP4 ADD DUP5 PUSH3 0xA5F JUMP JUMPDEST SWAP5 SWAP4 POP POP POP POP JUMP JUMPDEST PUSH1 0x0 PUSH1 0x20 DUP3 ADD SWAP1 POP PUSH3 0xB2C PUSH1 0x0 DUP4 ADD DUP5 PUSH3 0xA5F JUMP JUMPDEST SWAP3 SWAP2 POP POP JUMP JUMPDEST PUSH1 0x80 MLOAD PUSH1 0xA0 MLOAD PUSH2 0x2EE7 PUSH3 0xB7B PUSH1 0x0 CODECOPY PUSH1 0x0 DUP2 DUP2 PUSH2 0x11F8 ADD MSTORE DUP2 DUP2 PUSH2 0x1268 ADD MSTORE DUP2 DUP2 PUSH2 0x1614 ADD MSTORE DUP2 DUP2 PUSH2 0x184E ADD MSTORE DUP2 DUP2 PUSH2 0x18F5 ADD MSTORE PUSH2 0x1B24 ADD MSTORE PUSH1 0x0 PUSH2 0xA2D ADD MSTORE PUSH2 0x2EE7 PUSH1 0x0 RETURN INVALID PUSH1 0x80 PUSH1 0x40 MSTORE CALLVALUE DUP1 ISZERO PUSH2 0x10 JUMPI PUSH1 0x0 DUP1 REVERT JUMPDEST POP PUSH1 0x4 CALLDATASIZE LT PUSH2 0x1C4 JUMPI PUSH1 0x0 CALLDATALOAD PUSH1 0xE0 SHR DUP1 PUSH4 0x70A08231 GT PUSH2 0xF9 JUMPI DUP1 PUSH4 0xBADA6E23 GT PUSH2 0x97 JUMPI DUP1 PUSH4 0xDD62ED3E GT PUSH2 0x71 JUMPI DUP1 PUSH4 0xDD62ED3E EQ PUSH2 0x50F JUMPI DUP1 PUSH4 0xE80A4D58 EQ PUSH2 0x53F JUMPI DUP1 PUSH4 0xF09C69C7 EQ PUSH2 0x56F JUMPI DUP1 PUSH4 0xF868E766 EQ PUSH2 0x58B JUMPI PUSH2 0x1C4 JUMP JUMPDEST DUP1 PUSH4 0xBADA6E23 EQ PUSH2 0x4A5 JUMPI DUP1 PUSH4 0xBAFB8E83 EQ PUSH2 0x4C1 JUMPI DUP1 PUSH4 0xDCF6EA88 EQ PUSH2 0x4DF JUMPI PUSH2 0x1C4 JUMP JUMPDEST DUP1 PUSH4 0x90AAAFB3 GT PUSH2 0xD3 JUMPI DUP1 PUSH4 0x90AAAFB3 EQ PUSH2 0x41D JUMPI DUP1 PUSH4 0x95D89B41 EQ PUSH2 0x439 JUMPI DUP1 PUSH4 0xA9059CBB EQ PUSH2 0x457 JUMPI DUP1 PUSH4 0xB2BDFA7B EQ PUSH2 0x487 JUMPI PUSH2 0x1C4 JUMP JUMPDEST DUP1 PUSH4 0x70A08231 EQ PUSH2 0x3B5 JUMPI DUP1 PUSH4 0x85805723 EQ PUSH2 0x3E5 JUMPI DUP1 PUSH4 0x8D1AADBF EQ PUSH2 0x401 JUMPI PUSH2 0x1C4 JUMP JUMPDEST DUP1 PUSH4 0x27506F53 GT PUSH2 0x166 JUMPI DUP1 PUSH4 0x313CE567 GT PUSH2 0x140 JUMPI DUP1 PUSH4 0x313CE567 EQ PUSH2 0x32B JUMPI DUP1 PUSH4 0x355274EA EQ PUSH2 0x349 JUMPI DUP1 PUSH4 0x5506ED44 EQ PUSH2 0x367 JUMPI DUP1 PUSH4 0x65371883 EQ PUSH2 0x397 JUMPI PUSH2 0x1C4 JUMP JUMPDEST DUP1 PUSH4 0x27506F53 EQ PUSH2 0x2D1 JUMPI DUP1 PUSH4 0x2E7700F0 EQ PUSH2 0x2EF JUMPI DUP1 PUSH4 0x2E9C3D94 EQ PUSH2 0x30D JUMPI PUSH2 0x1C4 JUMP JUMPDEST DUP1 PUSH4 0x18160DDD GT PUSH2 0x1A2 JUMPI DUP1 PUSH4 0x18160DDD EQ PUSH2 0x235 JUMPI DUP1 PUSH4 0x19A3C68D EQ PUSH2 0x253 JUMPI DUP1 PUSH4 0x1E36AA63 EQ PUSH2 0x283 JUMPI DUP1 PUSH4 0x23B872DD EQ PUSH2 0x2A1 JUMPI PUSH2 0x1C4 JUMP JUMPDEST DUP1 PUSH4 0x44D1D4C EQ PUSH2 0x1C9 JUMPI DUP1 PUSH4 0x6FDDE03 EQ PUSH2 0x1E7 JUMPI DUP1 PUSH4 0x95EA7B3 EQ PUSH2 0x205 JUMPI JUMPDEST PUSH1 0x0 DUP1 REVERT JUMPDEST PUSH2 0x1D1 PUSH2 0x5A7 JUMP JUMPDEST PUSH1 0x40 MLOAD PUSH2 0x1DE SWAP2 SWAP1 PUSH2 0x202C JUMP JUMPDEST PUSH1 0x40 MLOAD DUP1 SWAP2 SUB SWAP1 RETURN JUMPDEST PUSH2 0x1EF PUSH2 0x5AD JUMP JUMPDEST PUSH1 0x40 MLOAD PUSH2 0x1FC SWAP2 SWAP1 PUSH2 0x20D7 JUMP JUMPDEST PUSH1 0x40 MLOAD DUP1 SWAP2 SUB SWAP1 RETURN JUMPDEST PUSH2 0x21F PUSH1 0x4 DUP1 CALLDATASIZE SUB DUP2 ADD SWAP1 PUSH2 0x21A SWAP2 SWAP1 PUSH2 0x2197 JUMP JUMPDEST PUSH2 0x63F JUMP JUMPDEST PUSH1 0x40 MLOAD PUSH2 0x22C SWAP2 SWAP1 PUSH2 0x21F2 JUMP JUMPDEST PUSH1 0x40 MLOAD DUP1 SWAP2 SUB SWAP1 RETURN JUMPDEST PUSH2 0x23D PUSH2 0x662 JUMP JUMPDEST PUSH1 0x40 MLOAD PUSH2 0x24A SWAP2 SWAP1 PUSH2 0x202C JUMP JUMPDEST PUSH1 0x40 MLOAD DUP1 SWAP2 SUB SWAP1 RETURN JUMPDEST PUSH2 0x26D PUSH1 0x4 DUP1 CALLDATASIZE SUB DUP2 ADD SWAP1 PUSH2 0x268 SWAP2 SWAP1 PUSH2 0x220D JUMP JUMPDEST PUSH2 0x66C JUMP JUMPDEST PUSH1 0x40 MLOAD PUSH2 0x27A SWAP2 SWAP1 PUSH2 0x21F2 JUMP JUMPDEST PUSH1 0x40 MLOAD DUP1 SWAP2 SUB SWAP1 RETURN JUMPDEST PUSH2 0x28B PUSH2 0x71A JUMP JUMPDEST PUSH1 0x40 MLOAD PUSH2 0x298 SWAP2 SWAP1 PUSH2 0x22F8 JUMP JUMPDEST PUSH1 0x40 MLOAD DUP1 SWAP2 SUB SWAP1 RETURN JUMPDEST PUSH2 0x2BB PUSH1 0x4 DUP1 CALLDATASIZE SUB DUP2 ADD SWAP1 PUSH2 0x2B6 SWAP2 SWAP1 PUSH2 0x231A JUMP JUMPDEST PUSH2 0x7A8 JUMP JUMPDEST PUSH1 0x40 MLOAD PUSH2 0x2C8 SWAP2 SWAP1 PUSH2 0x21F2 JUMP JUMPDEST PUSH1 0x40 MLOAD DUP1 SWAP2 SUB SWAP1 RETURN JUMPDEST PUSH2 0x2D9 PUSH2 0x7D7 JUMP JUMPDEST PUSH1 0x40 MLOAD PUSH2 0x2E6 SWAP2 SWAP1 PUSH2 0x24FE JUMP JUMPDEST PUSH1 0x40 MLOAD DUP1 SWAP2 SUB SWAP1 RETURN JUMPDEST PUSH2 0x2F7 PUSH2 0x988 JUMP JUMPDEST PUSH1 0x40 MLOAD PUSH2 0x304 SWAP2 SWAP1 PUSH2 0x202C JUMP JUMPDEST PUSH1 0x40 MLOAD DUP1 SWAP2 SUB SWAP1 RETURN JUMPDEST PUSH2 0x315 PUSH2 0x992 JUMP JUMPDEST PUSH1 0x40 MLOAD PUSH2 0x322 SWAP2 SWAP1 PUSH2 0x22F8 JUMP JUMPDEST PUSH1 0x40 MLOAD DUP1 SWAP2 SUB SWAP1 RETURN JUMPDEST PUSH2 0x333 PUSH2 0xA20 JUMP JUMPDEST PUSH1 0x40 MLOAD PUSH2 0x340 SWAP2 SWAP1 PUSH2 0x253C JUMP JUMPDEST PUSH1 0x40 MLOAD DUP1 SWAP2 SUB SWAP1 RETURN JUMPDEST PUSH2 0x351 PUSH2 0xA29 JUMP JUMPDEST PUSH1 0x40 MLOAD PUSH2 0x35E SWAP2 SWAP1 PUSH2 0x202C JUMP JUMPDEST PUSH1 0x40 MLOAD DUP1 SWAP2 SUB SWAP1 RETURN JUMPDEST PUSH2 0x381 PUSH1 0x4 DUP1 CALLDATASIZE SUB DUP2 ADD SWAP1 PUSH2 0x37C SWAP2 SWAP1 PUSH2 0x2557 JUMP JUMPDEST PUSH2 0xA51 JUMP JUMPDEST PUSH1 0x40 MLOAD PUSH2 0x38E SWAP2 SWAP1 PUSH2 0x2593 JUMP JUMPDEST PUSH1 0x40 MLOAD DUP1 SWAP2 SUB SWAP1 RETURN JUMPDEST PUSH2 0x39F PUSH2 0xA90 JUMP JUMPDEST PUSH1 0x40 MLOAD PUSH2 0x3AC SWAP2 SWAP1 PUSH2 0x202C JUMP JUMPDEST PUSH1 0x40 MLOAD DUP1 SWAP2 SUB SWAP1 RETURN JUMPDEST PUSH2 0x3CF PUSH1 0x4 DUP1 CALLDATASIZE SUB DUP2 ADD SWAP1 PUSH2 0x3CA SWAP2 SWAP1 PUSH2 0x220D JUMP JUMPDEST PUSH2 0xA96 JUMP JUMPDEST PUSH1 0x40 MLOAD PUSH2 0x3DC SWAP2 SWAP1 PUSH2 0x202C JUMP JUMPDEST PUSH1 0x40 MLOAD DUP1 SWAP2 SUB SWAP1 RETURN JUMPDEST PUSH2 0x3FF PUSH1 0x4 DUP1 CALLDATASIZE SUB DUP2 ADD SWAP1 PUSH2 0x3FA SWAP2 SWAP1 PUSH2 0x2721 JUMP JUMPDEST PUSH2 0xADE JUMP JUMPDEST STOP JUMPDEST PUSH2 0x41B PUSH1 0x4 DUP1 CALLDATASIZE SUB DUP2 ADD SWAP1 PUSH2 0x416 SWAP2 SWAP1 PUSH2 0x2197 JUMP JUMPDEST PUSH2 0xD90 JUMP JUMPDEST STOP JUMPDEST PUSH2 0x437 PUSH1 0x4 DUP1 CALLDATASIZE SUB DUP2 ADD SWAP1 PUSH2 0x432 SWAP2 SWAP1 PUSH2 0x220D JUMP JUMPDEST PUSH2 0xF9B JUMP JUMPDEST STOP JUMPDEST PUSH2 0x441 PUSH2 0x1018 JUMP JUMPDEST PUSH1 0x40 MLOAD PUSH2 0x44E SWAP2 SWAP1 PUSH2 0x20D7 JUMP JUMPDEST PUSH1 0x40 MLOAD DUP1 SWAP2 SUB SWAP1 RETURN JUMPDEST PUSH2 0x471 PUSH1 0x4 DUP1 CALLDATASIZE SUB DUP2 ADD SWAP1 PUSH2 0x46C SWAP2 SWAP1 PUSH2 0x2197 JUMP JUMPDEST PUSH2 0x10AA JUMP JUMPDEST PUSH1 0x40 MLOAD PUSH2 0x47E SWAP2 SWAP1 PUSH2 0x21F2 JUMP JUMPDEST PUSH1 0x40 MLOAD DUP1 SWAP2 SUB SWAP1 RETURN JUMPDEST PUSH2 0x48F PUSH2 0x11F6 JUMP JUMPDEST PUSH1 0x40 MLOAD PUSH2 0x49C SWAP2 SWAP1 PUSH2 0x2593 JUMP JUMPDEST PUSH1 0x40 MLOAD DUP1 SWAP2 SUB SWAP1 RETURN JUMPDEST PUSH2 0x4BF PUSH1 0x4 DUP1 CALLDATASIZE SUB DUP2 ADD SWAP1 PUSH2 0x4BA SWAP2 SWAP1 PUSH2 0x2557 JUMP JUMPDEST PUSH2 0x121A JUMP JUMPDEST STOP JUMPDEST PUSH2 0x4C9 PUSH2 0x1290 JUMP JUMPDEST PUSH1 0x40 MLOAD PUSH2 0x4D6 SWAP2 SWAP1 PUSH2 0x202C JUMP JUMPDEST PUSH1 0x40 MLOAD DUP1 SWAP2 SUB SWAP1 RETURN JUMPDEST PUSH2 0x4F9 PUSH1 0x4 DUP1 CALLDATASIZE SUB DUP2 ADD SWAP1 PUSH2 0x4F4 SWAP2 SWAP1 PUSH2 0x220D JUMP JUMPDEST PUSH2 0x1296 JUMP JUMPDEST PUSH1 0x40 MLOAD PUSH2 0x506 SWAP2 SWAP1 PUSH2 0x202C JUMP JUMPDEST PUSH1 0x40 MLOAD DUP1 SWAP2 SUB SWAP1 RETURN JUMPDEST PUSH2 0x529 PUSH1 0x4 DUP1 CALLDATASIZE SUB DUP2 ADD SWAP1 PUSH2 0x524 SWAP2 SWAP1 PUSH2 0x2790 JUMP JUMPDEST PUSH2 0x134A JUMP JUMPDEST PUSH1 0x40 MLOAD PUSH2 0x536 SWAP2 SWAP1 PUSH2 0x202C JUMP JUMPDEST PUSH1 0x40 MLOAD DUP1 SWAP2 SUB SWAP1 RETURN JUMPDEST PUSH2 0x559 PUSH1 0x4 DUP1 CALLDATASIZE SUB DUP2 ADD SWAP1 PUSH2 0x554 SWAP2 SWAP1 PUSH2 0x2557 JUMP JUMPDEST PUSH2 0x13D1 JUMP JUMPDEST PUSH1 0x40 MLOAD PUSH2 0x566 SWAP2 SWAP1 PUSH2 0x2593 JUMP JUMPDEST PUSH1 0x40 MLOAD DUP1 SWAP2 SUB SWAP1 RETURN JUMPDEST PUSH2 0x589 PUSH1 0x4 DUP1 CALLDATASIZE SUB DUP2 ADD SWAP1 PUSH2 0x584 SWAP2 SWAP1 PUSH2 0x2557 JUMP JUMPDEST PUSH2 0x1410 JUMP JUMPDEST STOP JUMPDEST PUSH2 0x5A5 PUSH1 0x4 DUP1 CALLDATASIZE SUB DUP2 ADD SWAP1 PUSH2 0x5A0 SWAP2 SWAP1 PUSH2 0x2557 JUMP JUMPDEST PUSH2 0x163D JUMP JUMPDEST STOP JUMPDEST PUSH1 0x7 SLOAD DUP2 JUMP JUMPDEST PUSH1 0x60 PUSH1 0x3 DUP1 SLOAD PUSH2 0x5BC SWAP1 PUSH2 0x27FF JUMP JUMPDEST DUP1 PUSH1 0x1F ADD PUSH1 0x20 DUP1 SWAP2 DIV MUL PUSH1 0x20 ADD PUSH1 0x40 MLOAD SWAP1 DUP2 ADD PUSH1 0x40 MSTORE DUP1 SWAP3 SWAP2 SWAP1 DUP2 DUP2 MSTORE PUSH1 0x20 ADD DUP3 DUP1 SLOAD PUSH2 0x5E8 SWAP1 PUSH2 0x27FF JUMP JUMPDEST DUP1 ISZERO PUSH2 0x635 JUMPI DUP1 PUSH1 0x1F LT PUSH2 0x60A JUMPI PUSH2 0x100 DUP1 DUP4 SLOAD DIV MUL DUP4 MSTORE SWAP2 PUSH1 0x20 ADD SWAP2 PUSH2 0x635 JUMP JUMPDEST DUP3 ADD SWAP2 SWAP1 PUSH1 0x0 MSTORE PUSH1 0x20 PUSH1 0x0 KECCAK256 SWAP1 JUMPDEST DUP2 SLOAD DUP2 MSTORE SWAP1 PUSH1 0x1 ADD SWAP1 PUSH1 0x20 ADD DUP1 DUP4 GT PUSH2 0x618 JUMPI DUP3 SWAP1 SUB PUSH1 0x1F AND DUP3 ADD SWAP2 JUMPDEST POP POP POP POP POP SWAP1 POP SWAP1 JUMP JUMPDEST PUSH1 0x0 DUP1 PUSH2 0x64A PUSH2 0x191F JUMP JUMPDEST SWAP1 POP PUSH2 0x657 DUP2 DUP6 DUP6 PUSH2 0x1927 JUMP JUMPDEST PUSH1 0x1 SWAP2 POP POP SWAP3 SWAP2 POP POP JUMP JUMPDEST PUSH1 0x0 PUSH1 0x2 SLOAD SWAP1 POP SWAP1 JUMP JUMPDEST PUSH1 0x0 DUP1 PUSH1 0x0 SWAP1 POP JUMPDEST PUSH1 0x9 DUP1 SLOAD SWAP1 POP DUP2 LT ISZERO PUSH2 0x70F JUMPI DUP3 PUSH20 0xFFFFFFFFFFFFFFFFFFFFFFFFFFFFFFFFFFFFFFFF AND PUSH1 0x9 DUP3 DUP2 SLOAD DUP2 LT PUSH2 0x6AC JUMPI PUSH2 0x6AB PUSH2 0x2830 JUMP JUMPDEST JUMPDEST SWAP1 PUSH1 0x0 MSTORE PUSH1 0x20 PUSH1 0x0 KECCAK256 ADD PUSH1 0x0 SWAP1 SLOAD SWAP1 PUSH2 0x100 EXP SWAP1 DIV PUSH20 0xFFFFFFFFFFFFFFFFFFFFFFFFFFFFFFFFFFFFFFFF AND PUSH20 0xFFFFFFFFFFFFFFFFFFFFFFFFFFFFFFFFFFFFFFFF AND SUB PUSH2 0x6FC JUMPI PUSH1 0x1 SWAP2 POP POP PUSH2 0x715 JUMP JUMPDEST DUP1 DUP1 PUSH2 0x707 SWAP1 PUSH2 0x288E JUMP JUMPDEST SWAP2 POP POP PUSH2 0x674 JUMP JUMPDEST POP PUSH1 0x0 SWAP1 POP JUMPDEST SWAP2 SWAP1 POP JUMP JUMPDEST PUSH1 0x60 PUSH1 0x9 DUP1 SLOAD DUP1 PUSH1 0x20 MUL PUSH1 0x20 ADD PUSH1 0x40 MLOAD SWAP1 DUP2 ADD PUSH1 0x40 MSTORE DUP1 SWAP3 SWAP2 SWAP1 DUP2 DUP2 MSTORE PUSH1 0x20 ADD DUP3 DUP1 SLOAD DUP1 ISZERO PUSH2 0x79E JUMPI PUSH1 0x20 MUL DUP3 ADD SWAP2 SWAP1 PUSH1 0x0 MSTORE PUSH1 0x20 PUSH1 0x0 KECCAK256 SWAP1 JUMPDEST DUP2 PUSH1 0x0 SWAP1 SLOAD SWAP1 PUSH2 0x100 EXP SWAP1 DIV PUSH20 0xFFFFFFFFFFFFFFFFFFFFFFFFFFFFFFFFFFFFFFFF AND PUSH20 0xFFFFFFFFFFFFFFFFFFFFFFFFFFFFFFFFFFFFFFFF AND DUP2 MSTORE PUSH1 0x20 ADD SWAP1 PUSH1 0x1 ADD SWAP1 DUP1 DUP4 GT PUSH2 0x754 JUMPI JUMPDEST POP POP POP POP POP SWAP1 POP SWAP1 JUMP JUMPDEST PUSH1 0x0 DUP1 PUSH2 0x7B3 PUSH2 0x191F JUMP JUMPDEST SWAP1 POP PUSH2 0x7C0 DUP6 DUP3 DUP6 PUSH2 0x1939 JUMP JUMPDEST PUSH2 0x7CB DUP6 DUP6 DUP6 PUSH2 0x19CD JUMP JUMPDEST PUSH1 0x1 SWAP2 POP POP SWAP4 SWAP3 POP POP POP JUMP JUMPDEST PUSH1 0x60 PUSH1 0xD DUP1 SLOAD DUP1 PUSH1 0x20 MUL PUSH1 0x20 ADD PUSH1 0x40 MLOAD SWAP1 DUP2 ADD PUSH1 0x40 MSTORE DUP1 SWAP3 SWAP2 SWAP1 DUP2 DUP2 MSTORE PUSH1 0x20 ADD PUSH1 0x0 SWAP1 JUMPDEST DUP3 DUP3 LT ISZERO PUSH2 0x97F JUMPI DUP4 DUP3 SWAP1 PUSH1 0x0 MSTORE PUSH1 0x20 PUSH1 0x0 KECCAK256 SWAP1 PUSH1 0x5 MUL ADD PUSH1 0x40 MLOAD DUP1 PUSH1 0xA0 ADD PUSH1 0x40 MSTORE SWAP1 DUP2 PUSH1 0x0 DUP3 ADD PUSH1 0x0 SWAP1 SLOAD SWAP1 PUSH2 0x100 EXP SWAP1 DIV PUSH20 0xFFFFFFFFFFFFFFFFFFFFFFFFFFFFFFFFFFFFFFFF AND PUSH20 0xFFFFFFFFFFFFFFFFFFFFFFFFFFFFFFFFFFFFFFFF AND PUSH20 0xFFFFFFFFFFFFFFFFFFFFFFFFFFFFFFFFFFFFFFFF AND DUP2 MSTORE PUSH1 0x20 ADD PUSH1 0x1 DUP3 ADD PUSH1 0x0 SWAP1 SLOAD SWAP1 PUSH2 0x100 EXP SWAP1 DIV PUSH20 0xFFFFFFFFFFFFFFFFFFFFFFFFFFFFFFFFFFFFFFFF AND PUSH20 0xFFFFFFFFFFFFFFFFFFFFFFFFFFFFFFFFFFFFFFFF AND PUSH20 0xFFFFFFFFFFFFFFFFFFFFFFFFFFFFFFFFFFFFFFFF AND DUP2 MSTORE PUSH1 0x20 ADD PUSH1 0x2 DUP3 ADD SLOAD DUP2 MSTORE PUSH1 0x20 ADD PUSH1 0x3 DUP3 ADD DUP1 SLOAD PUSH2 0x8E4 SWAP1 PUSH2 0x27FF JUMP JUMPDEST DUP1 PUSH1 0x1F ADD PUSH1 0x20 DUP1 SWAP2 DIV MUL PUSH1 0x20 ADD PUSH1 0x40 MLOAD SWAP1 DUP2 ADD PUSH1 0x40 MSTORE DUP1 SWAP3 SWAP2 SWAP1 DUP2 DUP2 MSTORE PUSH1 0x20 ADD DUP3 DUP1 SLOAD PUSH2 0x910 SWAP1 PUSH2 0x27FF JUMP JUMPDEST DUP1 ISZERO PUSH2 0x95D JUMPI DUP1 PUSH1 0x1F LT PUSH2 0x932 JUMPI PUSH2 0x100 DUP1 DUP4 SLOAD DIV MUL DUP4 MSTORE SWAP2 PUSH1 0x20 ADD SWAP2 PUSH2 0x95D JUMP JUMPDEST DUP3 ADD SWAP2 SWAP1 PUSH1 0x0 MSTORE PUSH1 0x20 PUSH1 0x0 KECCAK256 SWAP1 JUMPDEST DUP2 SLOAD DUP2 MSTORE SWAP1 PUSH1 0x1 ADD SWAP1 PUSH1 0x20 ADD DUP1 DUP4 GT PUSH2 0x940 JUMPI DUP3 SWAP1 SUB PUSH1 0x1F AND DUP3 ADD SWAP2 JUMPDEST POP POP POP POP POP DUP2 MSTORE PUSH1 0x20 ADD PUSH1 0x4 DUP3 ADD SLOAD DUP2 MSTORE POP POP DUP2 MSTORE PUSH1 0x20 ADD SWAP1 PUSH1 0x1 ADD SWAP1 PUSH2 0x7FB JUMP JUMPDEST POP POP POP POP SWAP1 POP SWAP1 JUMP JUMPDEST PUSH1 0x0 PUSH1 0x8 SLOAD SWAP1 POP SWAP1 JUMP JUMPDEST PUSH1 0x60 PUSH1 0xA DUP1 SLOAD DUP1 PUSH1 0x20 MUL PUSH1 0x20 ADD PUSH1 0x40 MLOAD SWAP1 DUP2 ADD PUSH1 0x40 MSTORE DUP1 SWAP3 SWAP2 SWAP1 DUP2 DUP2 MSTORE PUSH1 0x20 ADD DUP3 DUP1 SLOAD DUP1 ISZERO PUSH2 0xA16 JUMPI PUSH1 0x20 MUL DUP3 ADD SWAP2 SWAP1 PUSH1 0x0 MSTORE PUSH1 0x20 PUSH1 0x0 KECCAK256 SWAP1 JUMPDEST DUP2 PUSH1 0x0 SWAP1 SLOAD SWAP1 PUSH2 0x100 EXP SWAP1 DIV PUSH20 0xFFFFFFFFFFFFFFFFFFFFFFFFFFFFFFFFFFFFFFFF AND PUSH20 0xFFFFFFFFFFFFFFFFFFFFFFFFFFFFFFFFFFFFFFFF AND DUP2 MSTORE PUSH1 0x20 ADD SWAP1 PUSH1 0x1 ADD SWAP1 DUP1 DUP4 GT PUSH2 0x9CC JUMPI JUMPDEST POP POP POP POP POP SWAP1 POP SWAP1 JUMP JUMPDEST PUSH1 0x0 PUSH1 0x12 SWAP1 POP SWAP1 JUMP JUMPDEST PUSH1 0x0 PUSH32 0x0 SWAP1 POP SWAP1 JUMP JUMPDEST PUSH1 0xA DUP2 DUP2 SLOAD DUP2 LT PUSH2 0xA61 JUMPI PUSH1 0x0 DUP1 REVERT JUMPDEST SWAP1 PUSH1 0x0 MSTORE PUSH1 0x20 PUSH1 0x0 KECCAK256 ADD PUSH1 0x0 SWAP2 POP SLOAD SWAP1 PUSH2 0x100 EXP SWAP1 DIV PUSH20 0xFFFFFFFFFFFFFFFFFFFFFFFFFFFFFFFFFFFFFFFF AND DUP2 JUMP JUMPDEST PUSH1 0x5 SLOAD DUP2 JUMP JUMPDEST PUSH1 0x0 DUP1 PUSH1 0x0 DUP4 PUSH20 0xFFFFFFFFFFFFFFFFFFFFFFFFFFFFFFFFFFFFFFFF AND PUSH20 0xFFFFFFFFFFFFFFFFFFFFFFFFFFFFFFFFFFFFFFFF AND DUP2 MSTORE PUSH1 0x20 ADD SWAP1 DUP2 MSTORE PUSH1 0x20 ADD PUSH1 0x0 KECCAK256 SLOAD SWAP1 POP SWAP2 SWAP1 POP JUMP JUMPDEST PUSH1 0x0 JUMPDEST PUSH1 0xA DUP1 SLOAD SWAP1 POP DUP2 LT ISZERO PUSH2 0xBF9 JUMPI CALLER PUSH20 0xFFFFFFFFFFFFFFFFFFFFFFFFFFFFFFFFFFFFFFFF AND PUSH1 0xA DUP3 DUP2 SLOAD DUP2 LT PUSH2 0xB19 JUMPI PUSH2 0xB18 PUSH2 0x2830 JUMP JUMPDEST JUMPDEST SWAP1 PUSH1 0x0 MSTORE PUSH1 0x20 PUSH1 0x0 KECCAK256 ADD PUSH1 0x0 SWAP1 SLOAD SWAP1 PUSH2 0x100 EXP SWAP1 DIV PUSH20 0xFFFFFFFFFFFFFFFFFFFFFFFFFFFFFFFFFFFFFFFF AND PUSH20 0xFFFFFFFFFFFFFFFFFFFFFFFFFFFFFFFFFFFFFFFF AND SUB PUSH2 0xBE6 JUMPI CALLER PUSH20 0xFFFFFFFFFFFFFFFFFFFFFFFFFFFFFFFFFFFFFFFF AND PUSH32 0x95E4151200D357A599DAC39756B80FCD6D76FD3D5B74D6ADEF1DAD12411F27E3 PUSH1 0x40 MLOAD PUSH2 0xBA3 SWAP1 PUSH2 0x2922 JUMP JUMPDEST PUSH1 0x40 MLOAD DUP1 SWAP2 SUB SWAP1 LOG2 PUSH1 0x40 MLOAD PUSH32 0xC033214D00000000000000000000000000000000000000000000000000000000 DUP2 MSTORE PUSH1 0x4 ADD PUSH2 0xBDD SWAP1 PUSH2 0x2922 JUMP JUMPDEST PUSH1 0x40 MLOAD DUP1 SWAP2 SUB SWAP1 REVERT JUMPDEST DUP1 DUP1 PUSH2 0xBF1 SWAP1 PUSH2 0x288E JUMP JUMPDEST SWAP2 POP POP PUSH2 0xAE1 JUMP JUMPDEST POP PUSH1 0x1 PUSH1 0x8 PUSH1 0x0 DUP3 DUP3 SLOAD PUSH2 0xC0D SWAP2 SWAP1 PUSH2 0x2942 JUMP JUMPDEST SWAP3 POP POP DUP2 SWAP1 SSTORE POP PUSH1 0xD PUSH1 0x40 MLOAD DUP1 PUSH1 0xA0 ADD PUSH1 0x40 MSTORE DUP1 CALLER PUSH20 0xFFFFFFFFFFFFFFFFFFFFFFFFFFFFFFFFFFFFFFFF AND DUP2 MSTORE PUSH1 0x20 ADD DUP6 PUSH20 0xFFFFFFFFFFFFFFFFFFFFFFFFFFFFFFFFFFFFFFFF AND DUP2 MSTORE PUSH1 0x20 ADD DUP5 DUP2 MSTORE PUSH1 0x20 ADD DUP4 DUP2 MSTORE PUSH1 0x20 ADD TIMESTAMP DUP2 MSTORE POP SWAP1 DUP1 PUSH1 0x1 DUP2 SLOAD ADD DUP1 DUP3 SSTORE DUP1 SWAP2 POP POP PUSH1 0x1 SWAP1 SUB SWAP1 PUSH1 0x0 MSTORE PUSH1 0x20 PUSH1 0x0 KECCAK256 SWAP1 PUSH1 0x5 MUL ADD PUSH1 0x0 SWAP1 SWAP2 SWAP1 SWAP2 SWAP1 SWAP2 POP PUSH1 0x0 DUP3 ADD MLOAD DUP2 PUSH1 0x0 ADD PUSH1 0x0 PUSH2 0x100 EXP DUP2 SLOAD DUP2 PUSH20 0xFFFFFFFFFFFFFFFFFFFFFFFFFFFFFFFFFFFFFFFF MUL NOT AND SWAP1 DUP4 PUSH20 0xFFFFFFFFFFFFFFFFFFFFFFFFFFFFFFFFFFFFFFFF AND MUL OR SWAP1 SSTORE POP PUSH1 0x20 DUP3 ADD MLOAD DUP2 PUSH1 0x1 ADD PUSH1 0x0 PUSH2 0x100 EXP DUP2 SLOAD DUP2 PUSH20 0xFFFFFFFFFFFFFFFFFFFFFFFFFFFFFFFFFFFFFFFF MUL NOT AND SWAP1 DUP4 PUSH20 0xFFFFFFFFFFFFFFFFFFFFFFFFFFFFFFFFFFFFFFFF AND MUL OR SWAP1 SSTORE POP PUSH1 0x40 DUP3 ADD MLOAD DUP2 PUSH1 0x2 ADD SSTORE PUSH1 0x60 DUP3 ADD MLOAD DUP2 PUSH1 0x3 ADD SWAP1 DUP2 PUSH2 0xD3F SWAP2 SWAP1 PUSH2 0x2B22 JUMP JUMPDEST POP PUSH1 0x80 DUP3 ADD MLOAD DUP2 PUSH1 0x4 ADD SSTORE POP POP PUSH32 0xC4B32D7FF75A51E487F3CBB5D3202F2EFECCA1F4C2B987E0039C1D3220B48A83 CALLER DUP5 DUP5 DUP5 TIMESTAMP PUSH1 0x40 MLOAD PUSH2 0xD83 SWAP6 SWAP5 SWAP4 SWAP3 SWAP2 SWAP1 PUSH2 0x2C49 JUMP JUMPDEST PUSH1 0x40 MLOAD DUP1 SWAP2 SUB SWAP1 LOG1 POP POP POP JUMP JUMPDEST PUSH1 0x0 JUMPDEST PUSH1 0xA DUP1 SLOAD SWAP1 POP DUP2 LT ISZERO PUSH2 0xEAB JUMPI CALLER PUSH20 0xFFFFFFFFFFFFFFFFFFFFFFFFFFFFFFFFFFFFFFFF AND PUSH1 0xA DUP3 DUP2 SLOAD DUP2 LT PUSH2 0xDCB JUMPI PUSH2 0xDCA PUSH2 0x2830 JUMP JUMPDEST JUMPDEST SWAP1 PUSH1 0x0 MSTORE PUSH1 0x20 PUSH1 0x0 KECCAK256 ADD PUSH1 0x0 SWAP1 SLOAD SWAP1 PUSH2 0x100 EXP SWAP1 DIV PUSH20 0xFFFFFFFFFFFFFFFFFFFFFFFFFFFFFFFFFFFFFFFF AND PUSH20 0xFFFFFFFFFFFFFFFFFFFFFFFFFFFFFFFFFFFFFFFF AND SUB PUSH2 0xE98 JUMPI CALLER PUSH20 0xFFFFFFFFFFFFFFFFFFFFFFFFFFFFFFFFFFFFFFFF AND PUSH32 0x95E4151200D357A599DAC39756B80FCD6D76FD3D5B74D6ADEF1DAD12411F27E3 PUSH1 0x40 MLOAD PUSH2 0xE55 SWAP1 PUSH2 0x2922 JUMP JUMPDEST PUSH1 0x40 MLOAD DUP1 SWAP2 SUB SWAP1 LOG2 PUSH1 0x40 MLOAD PUSH32 0xC033214D00000000000000000000000000000000000000000000000000000000 DUP2 MSTORE PUSH1 0x4 ADD PUSH2 0xE8F SWAP1 PUSH2 0x2922 JUMP JUMPDEST PUSH1 0x40 MLOAD DUP1 SWAP2 SUB SWAP1 REVERT JUMPDEST DUP1 DUP1 PUSH2 0xEA3 SWAP1 PUSH2 0x288E JUMP JUMPDEST SWAP2 POP POP PUSH2 0xD93 JUMP JUMPDEST POP PUSH8 0xDE0B6B3A7640000 DUP2 PUSH2 0xEC0 SWAP2 SWAP1 PUSH2 0x2CA3 JUMP JUMPDEST SWAP1 POP PUSH1 0x7 SLOAD DUP2 GT ISZERO PUSH2 0xF07 JUMPI PUSH1 0x40 MLOAD PUSH32 0x8C379A000000000000000000000000000000000000000000000000000000000 DUP2 MSTORE PUSH1 0x4 ADD PUSH2 0xEFE SWAP1 PUSH2 0x2D31 JUMP JUMPDEST PUSH1 0x40 MLOAD DUP1 SWAP2 SUB SWAP1 REVERT JUMPDEST PUSH1 0x9 DUP3 SWAP1 DUP1 PUSH1 0x1 DUP2 SLOAD ADD DUP1 DUP3 SSTORE DUP1 SWAP2 POP POP PUSH1 0x1 SWAP1 SUB SWAP1 PUSH1 0x0 MSTORE PUSH1 0x20 PUSH1 0x0 KECCAK256 ADD PUSH1 0x0 SWAP1 SWAP2 SWAP1 SWAP2 SWAP1 SWAP2 PUSH2 0x100 EXP DUP2 SLOAD DUP2 PUSH20 0xFFFFFFFFFFFFFFFFFFFFFFFFFFFFFFFFFFFFFFFF MUL NOT AND SWAP1 DUP4 PUSH20 0xFFFFFFFFFFFFFFFFFFFFFFFFFFFFFFFFFFFFFFFF AND MUL OR SWAP1 SSTORE POP PUSH1 0x1 PUSH1 0xC PUSH1 0x0 DUP3 DUP3 SLOAD PUSH2 0xF7D SWAP2 SWAP1 PUSH2 0x2942 JUMP JUMPDEST SWAP3 POP POP DUP2 SWAP1 SSTORE POP PUSH2 0xF8E CALLER DUP3 PUSH2 0x1AC1 JUMP JUMPDEST PUSH2 0xF97 DUP3 PUSH2 0xF9B JUMP JUMPDEST POP POP JUMP JUMPDEST PUSH1 0x0 PUSH2 0xFA6 DUP3 PUSH2 0x1296 JUMP JUMPDEST SWAP1 POP PUSH1 0x3 DUP2 LT PUSH2 0x1014 JUMPI PUSH1 0xA DUP3 SWAP1 DUP1 PUSH1 0x1 DUP2 SLOAD ADD DUP1 DUP3 SSTORE DUP1 SWAP2 POP POP PUSH1 0x1 SWAP1 SUB SWAP1 PUSH1 0x0 MSTORE PUSH1 0x20 PUSH1 0x0 KECCAK256 ADD PUSH1 0x0 SWAP1 SWAP2 SWAP1 SWAP2 SWAP1 SWAP2 PUSH2 0x100 EXP DUP2 SLOAD DUP2 PUSH20 0xFFFFFFFFFFFFFFFFFFFFFFFFFFFFFFFFFFFFFFFF MUL NOT AND SWAP1 DUP4 PUSH20 0xFFFFFFFFFFFFFFFFFFFFFFFFFFFFFFFFFFFFFFFF AND MUL OR SWAP1 SSTORE POP JUMPDEST POP POP JUMP JUMPDEST PUSH1 0x60 PUSH1 0x4 DUP1 SLOAD PUSH2 0x1027 SWAP1 PUSH2 0x27FF JUMP JUMPDEST DUP1 PUSH1 0x1F ADD PUSH1 0x20 DUP1 SWAP2 DIV MUL PUSH1 0x20 ADD PUSH1 0x40 MLOAD SWAP1 DUP2 ADD PUSH1 0x40 MSTORE DUP1 SWAP3 SWAP2 SWAP1 DUP2 DUP2 MSTORE PUSH1 0x20 ADD DUP3 DUP1 SLOAD PUSH2 0x1053 SWAP1 PUSH2 0x27FF JUMP JUMPDEST DUP1 ISZERO PUSH2 0x10A0 JUMPI DUP1 PUSH1 0x1F LT PUSH2 0x1075 JUMPI PUSH2 0x100 DUP1 DUP4 SLOAD DIV MUL DUP4 MSTORE SWAP2 PUSH1 0x20 ADD SWAP2 PUSH2 0x10A0 JUMP JUMPDEST DUP3 ADD SWAP2 SWAP1 PUSH1 0x0 MSTORE PUSH1 0x20 PUSH1 0x0 KECCAK256 SWAP1 JUMPDEST DUP2 SLOAD DUP2 MSTORE SWAP1 PUSH1 0x1 ADD SWAP1 PUSH1 0x20 ADD DUP1 DUP4 GT PUSH2 0x1083 JUMPI DUP3 SWAP1 SUB PUSH1 0x1F AND DUP3 ADD SWAP2 JUMPDEST POP POP POP POP POP SWAP1 POP SWAP1 JUMP JUMPDEST PUSH1 0x0 DUP1 PUSH1 0x0 SWAP1 POP JUMPDEST PUSH1 0xA DUP1 SLOAD SWAP1 POP DUP2 LT ISZERO PUSH2 0x11CA JUMPI CALLER PUSH20 0xFFFFFFFFFFFFFFFFFFFFFFFFFFFFFFFFFFFFFFFF AND PUSH1 0xA DUP3 DUP2 SLOAD DUP2 LT PUSH2 0x10EA JUMPI PUSH2 0x10E9 PUSH2 0x2830 JUMP JUMPDEST JUMPDEST SWAP1 PUSH1 0x0 MSTORE PUSH1 0x20 PUSH1 0x0 KECCAK256 ADD PUSH1 0x0 SWAP1 SLOAD SWAP1 PUSH2 0x100 EXP SWAP1 DIV PUSH20 0xFFFFFFFFFFFFFFFFFFFFFFFFFFFFFFFFFFFFFFFF AND PUSH20 0xFFFFFFFFFFFFFFFFFFFFFFFFFFFFFFFFFFFFFFFF AND SUB PUSH2 0x11B7 JUMPI CALLER PUSH20 0xFFFFFFFFFFFFFFFFFFFFFFFFFFFFFFFFFFFFFFFF AND PUSH32 0x95E4151200D357A599DAC39756B80FCD6D76FD3D5B74D6ADEF1DAD12411F27E3 PUSH1 0x40 MLOAD PUSH2 0x1174 SWAP1 PUSH2 0x2922 JUMP JUMPDEST PUSH1 0x40 MLOAD DUP1 SWAP2 SUB SWAP1 LOG2 PUSH1 0x40 MLOAD PUSH32 0xC033214D00000000000000000000000000000000000000000000000000000000 DUP2 MSTORE PUSH1 0x4 ADD PUSH2 0x11AE SWAP1 PUSH2 0x2922 JUMP JUMPDEST PUSH1 0x40 MLOAD DUP1 SWAP2 SUB SWAP1 REVERT JUMPDEST DUP1 DUP1 PUSH2 0x11C2 SWAP1 PUSH2 0x288E JUMP JUMPDEST SWAP2 POP POP PUSH2 0x10B2 JUMP JUMPDEST POP PUSH8 0xDE0B6B3A7640000 DUP3 PUSH2 0x11DF SWAP2 SWAP1 PUSH2 0x2CA3 JUMP JUMPDEST SWAP2 POP PUSH2 0x11EB DUP4 DUP4 PUSH2 0x1B4E JUMP JUMPDEST POP PUSH1 0x1 SWAP1 POP SWAP3 SWAP2 POP POP JUMP JUMPDEST PUSH32 0x0 DUP2 JUMP JUMPDEST PUSH8 0xDE0B6B3A7640000 DUP2 PUSH2 0x122E SWAP2 SWAP1 PUSH2 0x2CA3 JUMP JUMPDEST SWAP1 POP DUP1 PUSH1 0x6 PUSH1 0x0 DUP3 DUP3 SLOAD PUSH2 0x1242 SWAP2 SWAP1 PUSH2 0x2D51 JUMP JUMPDEST SWAP3 POP POP DUP2 SWAP1 SSTORE POP DUP1 PUSH1 0x7 PUSH1 0x0 DUP3 DUP3 SLOAD PUSH2 0x125B SWAP2 SWAP1 PUSH2 0x2942 JUMP JUMPDEST SWAP3 POP POP DUP2 SWAP1 SSTORE POP PUSH2 0x128D CALLER PUSH32 0x0 DUP4 PUSH2 0x19CD JUMP JUMPDEST POP JUMP JUMPDEST PUSH1 0x6 SLOAD DUP2 JUMP JUMPDEST PUSH1 0x0 DUP1 PUSH1 0x0 SWAP1 POP PUSH1 0x0 JUMPDEST PUSH1 0x9 DUP1 SLOAD SWAP1 POP DUP2 LT ISZERO PUSH2 0x1340 JUMPI DUP4 PUSH20 0xFFFFFFFFFFFFFFFFFFFFFFFFFFFFFFFFFFFFFFFF AND PUSH1 0x9 DUP3 DUP2 SLOAD DUP2 LT PUSH2 0x12D8 JUMPI PUSH2 0x12D7 PUSH2 0x2830 JUMP JUMPDEST JUMPDEST SWAP1 PUSH1 0x0 MSTORE PUSH1 0x20 PUSH1 0x0 KECCAK256 ADD PUSH1 0x0 SWAP1 SLOAD SWAP1 PUSH2 0x100 EXP SWAP1 DIV PUSH20 0xFFFFFFFFFFFFFFFFFFFFFFFFFFFFFFFFFFFFFFFF AND PUSH20 0xFFFFFFFFFFFFFFFFFFFFFFFFFFFFFFFFFFFFFFFF AND SUB PUSH2 0x132D JUMPI DUP2 DUP1 PUSH2 0x1329 SWAP1 PUSH2 0x288E JUMP JUMPDEST SWAP3 POP POP JUMPDEST DUP1 DUP1 PUSH2 0x1338 SWAP1 PUSH2 0x288E JUMP JUMPDEST SWAP2 POP POP PUSH2 0x12A0 JUMP JUMPDEST POP DUP1 SWAP2 POP POP SWAP2 SWAP1 POP JUMP JUMPDEST PUSH1 0x0 PUSH1 0x1 PUSH1 0x0 DUP5 PUSH20 0xFFFFFFFFFFFFFFFFFFFFFFFFFFFFFFFFFFFFFFFF AND PUSH20 0xFFFFFFFFFFFFFFFFFFFFFFFFFFFFFFFFFFFFFFFF AND DUP2 MSTORE PUSH1 0x20 ADD SWAP1 DUP2 MSTORE PUSH1 0x20 ADD PUSH1 0x0 KECCAK256 PUSH1 0x0 DUP4 PUSH20 0xFFFFFFFFFFFFFFFFFFFFFFFFFFFFFFFFFFFFFFFF AND PUSH20 0xFFFFFFFFFFFFFFFFFFFFFFFFFFFFFFFFFFFFFFFF AND DUP2 MSTORE PUSH1 0x20 ADD SWAP1 DUP2 MSTORE PUSH1 0x20 ADD PUSH1 0x0 KECCAK256 SLOAD SWAP1 POP SWAP3 SWAP2 POP POP JUMP JUMPDEST PUSH1 0x9 DUP2 DUP2 SLOAD DUP2 LT PUSH2 0x13E1 JUMPI PUSH1 0x0 DUP1 REVERT JUMPDEST SWAP1 PUSH1 0x0 MSTORE PUSH1 0x20 PUSH1 0x0 KECCAK256 ADD PUSH1 0x0 SWAP2 POP SLOAD SWAP1 PUSH2 0x100 EXP SWAP1 DIV PUSH20 0xFFFFFFFFFFFFFFFFFFFFFFFFFFFFFFFFFFFFFFFF AND DUP2 JUMP JUMPDEST PUSH1 0x0 JUMPDEST PUSH1 0xA DUP1 SLOAD SWAP1 POP DUP2 LT ISZERO PUSH2 0x152B JUMPI CALLER PUSH20 0xFFFFFFFFFFFFFFFFFFFFFFFFFFFFFFFFFFFFFFFF AND PUSH1 0xA DUP3 DUP2 SLOAD DUP2 LT PUSH2 0x144B JUMPI PUSH2 0x144A PUSH2 0x2830 JUMP JUMPDEST JUMPDEST SWAP1 PUSH1 0x0 MSTORE PUSH1 0x20 PUSH1 0x0 KECCAK256 ADD PUSH1 0x0 SWAP1 SLOAD SWAP1 PUSH2 0x100 EXP SWAP1 DIV PUSH20 0xFFFFFFFFFFFFFFFFFFFFFFFFFFFFFFFFFFFFFFFF AND PUSH20 0xFFFFFFFFFFFFFFFFFFFFFFFFFFFFFFFFFFFFFFFF AND SUB PUSH2 0x1518 JUMPI CALLER PUSH20 0xFFFFFFFFFFFFFFFFFFFFFFFFFFFFFFFFFFFFFFFF AND PUSH32 0x95E4151200D357A599DAC39756B80FCD6D76FD3D5B74D6ADEF1DAD12411F27E3 PUSH1 0x40 MLOAD PUSH2 0x14D5 SWAP1 PUSH2 0x2922 JUMP JUMPDEST PUSH1 0x40 MLOAD DUP1 SWAP2 SUB SWAP1 LOG2 PUSH1 0x40 MLOAD PUSH32 0xC033214D00000000000000000000000000000000000000000000000000000000 DUP2 MSTORE PUSH1 0x4 ADD PUSH2 0x150F SWAP1 PUSH2 0x2922 JUMP JUMPDEST PUSH1 0x40 MLOAD DUP1 SWAP2 SUB SWAP1 REVERT JUMPDEST DUP1 DUP1 PUSH2 0x1523 SWAP1 PUSH2 0x288E JUMP JUMPDEST SWAP2 POP POP PUSH2 0x1413 JUMP JUMPDEST POP PUSH8 0xDE0B6B3A7640000 DUP2 PUSH2 0x1540 SWAP2 SWAP1 PUSH2 0x2CA3 JUMP JUMPDEST SWAP1 POP PUSH2 0x154B CALLER PUSH2 0x66C JUMP JUMPDEST ISZERO PUSH2 0x15DC JUMPI PUSH1 0x64 PUSH1 0x14 DUP3 PUSH2 0x155F SWAP2 SWAP1 PUSH2 0x2CA3 JUMP JUMPDEST PUSH2 0x1569 SWAP2 SWAP1 PUSH2 0x2DB4 JUMP JUMPDEST PUSH1 0xB DUP2 SWAP1 SSTORE POP PUSH1 0x64 PUSH1 0x50 DUP3 PUSH2 0x157E SWAP2 SWAP1 PUSH2 0x2CA3 JUMP JUMPDEST PUSH2 0x1588 SWAP2 SWAP1 PUSH2 0x2DB4 JUMP JUMPDEST SWAP1 POP DUP1 PUSH1 0x6 PUSH1 0x0 DUP3 DUP3 SLOAD PUSH2 0x159C SWAP2 SWAP1 PUSH2 0x2D51 JUMP JUMPDEST SWAP3 POP POP DUP2 SWAP1 SSTORE POP DUP1 PUSH1 0x5 PUSH1 0x0 DUP3 DUP3 SLOAD PUSH2 0x15B5 SWAP2 SWAP1 PUSH2 0x2942 JUMP JUMPDEST SWAP3 POP POP DUP2 SWAP1 SSTORE POP PUSH1 0xB SLOAD PUSH1 0x7 PUSH1 0x0 DUP3 DUP3 SLOAD PUSH2 0x15D0 SWAP2 SWAP1 PUSH2 0x2942 JUMP JUMPDEST SWAP3 POP POP DUP2 SWAP1 SSTORE POP PUSH2 0x163A JUMP JUMPDEST DUP1 PUSH1 0x6 PUSH1 0x0 DUP3 DUP3 SLOAD PUSH2 0x15EE SWAP2 SWAP1 PUSH2 0x2D51 JUMP JUMPDEST SWAP3 POP POP DUP2 SWAP1 SSTORE POP DUP1 PUSH1 0x5 PUSH1 0x0 DUP3 DUP3 SLOAD PUSH2 0x1607 SWAP2 SWAP1 PUSH2 0x2942 JUMP JUMPDEST SWAP3 POP POP DUP2 SWAP1 SSTORE POP PUSH2 0x1639 CALLER PUSH32 0x0 DUP4 PUSH2 0x19CD JUMP JUMPDEST JUMPDEST POP JUMP JUMPDEST PUSH1 0x0 JUMPDEST PUSH1 0xA DUP1 SLOAD SWAP1 POP DUP2 LT ISZERO PUSH2 0x1758 JUMPI CALLER PUSH20 0xFFFFFFFFFFFFFFFFFFFFFFFFFFFFFFFFFFFFFFFF AND PUSH1 0xA DUP3 DUP2 SLOAD DUP2 LT PUSH2 0x1678 JUMPI PUSH2 0x1677 PUSH2 0x2830 JUMP JUMPDEST JUMPDEST SWAP1 PUSH1 0x0 MSTORE PUSH1 0x20 PUSH1 0x0 KECCAK256 ADD PUSH1 0x0 SWAP1 SLOAD SWAP1 PUSH2 0x100 EXP SWAP1 DIV PUSH20 0xFFFFFFFFFFFFFFFFFFFFFFFFFFFFFFFFFFFFFFFF AND PUSH20 0xFFFFFFFFFFFFFFFFFFFFFFFFFFFFFFFFFFFFFFFF AND SUB PUSH2 0x1745 JUMPI CALLER PUSH20 0xFFFFFFFFFFFFFFFFFFFFFFFFFFFFFFFFFFFFFFFF AND PUSH32 0x95E4151200D357A599DAC39756B80FCD6D76FD3D5B74D6ADEF1DAD12411F27E3 PUSH1 0x40 MLOAD PUSH2 0x1702 SWAP1 PUSH2 0x2922 JUMP JUMPDEST PUSH1 0x40 MLOAD DUP1 SWAP2 SUB SWAP1 LOG2 PUSH1 0x40 MLOAD PUSH32 0xC033214D00000000000000000000000000000000000000000000000000000000 DUP2 MSTORE PUSH1 0x4 ADD PUSH2 0x173C SWAP1 PUSH2 0x2922 JUMP JUMPDEST PUSH1 0x40 MLOAD DUP1 SWAP2 SUB SWAP1 REVERT JUMPDEST DUP1 DUP1 PUSH2 0x1750 SWAP1 PUSH2 0x288E JUMP JUMPDEST SWAP2 POP POP PUSH2 0x1640 JUMP JUMPDEST POP PUSH8 0xDE0B6B3A7640000 DUP2 PUSH2 0x176D SWAP2 SWAP1 PUSH2 0x2CA3 JUMP JUMPDEST SWAP1 POP PUSH2 0x1778 CALLER PUSH2 0x66C JUMP JUMPDEST ISZERO PUSH2 0x1879 JUMPI PUSH1 0x5 SLOAD DUP2 GT ISZERO PUSH2 0x17C2 JUMPI PUSH1 0x40 MLOAD PUSH32 0x8C379A000000000000000000000000000000000000000000000000000000000 DUP2 MSTORE PUSH1 0x4 ADD PUSH2 0x17B9 SWAP1 PUSH2 0x2E31 JUMP JUMPDEST PUSH1 0x40 MLOAD DUP1 SWAP2 SUB SWAP1 REVERT JUMPDEST PUSH1 0x64 PUSH1 0x14 DUP3 PUSH2 0x17D1 SWAP2 SWAP1 PUSH2 0x2CA3 JUMP JUMPDEST PUSH2 0x17DB SWAP2 SWAP1 PUSH2 0x2DB4 JUMP JUMPDEST PUSH1 0xB DUP2 SWAP1 SSTORE POP PUSH1 0x64 PUSH1 0x50 DUP3 PUSH2 0x17F0 SWAP2 SWAP1 PUSH2 0x2CA3 JUMP JUMPDEST PUSH2 0x17FA SWAP2 SWAP1 PUSH2 0x2DB4 JUMP JUMPDEST SWAP1 POP DUP1 PUSH1 0x5 PUSH1 0x0 DUP3 DUP3 SLOAD PUSH2 0x180E SWAP2 SWAP1 PUSH2 0x2D51 JUMP JUMPDEST SWAP3 POP POP DUP2 SWAP1 SSTORE POP DUP1 PUSH1 0x6 PUSH1 0x0 DUP3 DUP3 SLOAD PUSH2 0x1827 SWAP2 SWAP1 PUSH2 0x2942 JUMP JUMPDEST SWAP3 POP POP DUP2 SWAP1 SSTORE POP PUSH1 0xB SLOAD PUSH1 0x7 PUSH1 0x0 DUP3 DUP3 SLOAD PUSH2 0x1842 SWAP2 SWAP1 PUSH2 0x2942 JUMP JUMPDEST SWAP3 POP POP DUP2 SWAP1 SSTORE POP PUSH2 0x1874 PUSH32 0x0 CALLER DUP4 PUSH2 0x19CD JUMP JUMPDEST PUSH2 0x191C JUMP JUMPDEST PUSH1 0x5 SLOAD DUP2 GT ISZERO PUSH2 0x18BE JUMPI PUSH1 0x40 MLOAD PUSH32 0x8C379A000000000000000000000000000000000000000000000000000000000 DUP2 MSTORE PUSH1 0x4 ADD PUSH2 0x18B5 SWAP1 PUSH2 0x2E31 JUMP JUMPDEST PUSH1 0x40 MLOAD DUP1 SWAP2 SUB SWAP1 REVERT JUMPDEST DUP1 PUSH1 0x5 PUSH1 0x0 DUP3 DUP3 SLOAD PUSH2 0x18D0 SWAP2 SWAP1 PUSH2 0x2D51 JUMP JUMPDEST SWAP3 POP POP DUP2 SWAP1 SSTORE POP DUP1 PUSH1 0x6 PUSH1 0x0 DUP3 DUP3 SLOAD PUSH2 0x18E9 SWAP2 SWAP1 PUSH2 0x2942 JUMP JUMPDEST SWAP3 POP POP DUP2 SWAP1 SSTORE POP PUSH2 0x191B PUSH32 0x0 CALLER DUP4 PUSH2 0x19CD JUMP JUMPDEST JUMPDEST POP JUMP JUMPDEST PUSH1 0x0 CALLER SWAP1 POP SWAP1 JUMP JUMPDEST PUSH2 0x1934 DUP4 DUP4 DUP4 PUSH1 0x1 PUSH2 0x1B71 JUMP JUMPDEST POP POP POP JUMP JUMPDEST PUSH1 0x0 PUSH2 0x1945 DUP5 DUP5 PUSH2 0x134A JUMP JUMPDEST SWAP1 POP PUSH32 0xFFFFFFFFFFFFFFFFFFFFFFFFFFFFFFFFFFFFFFFFFFFFFFFFFFFFFFFFFFFFFFFF DUP2 EQ PUSH2 0x19C7 JUMPI DUP2 DUP2 LT ISZERO PUSH2 0x19B7 JUMPI DUP3 DUP2 DUP4 PUSH1 0x40 MLOAD PUSH32 0xFB8F41B200000000000000000000000000000000000000000000000000000000 DUP2 MSTORE PUSH1 0x4 ADD PUSH2 0x19AE SWAP4 SWAP3 SWAP2 SWAP1 PUSH2 0x2E51 JUMP JUMPDEST PUSH1 0x40 MLOAD DUP1 SWAP2 SUB SWAP1 REVERT JUMPDEST PUSH2 0x19C6 DUP5 DUP5 DUP5 DUP5 SUB PUSH1 0x0 PUSH2 0x1B71 JUMP JUMPDEST JUMPDEST POP POP POP POP JUMP JUMPDEST PUSH1 0x0 PUSH20 0xFFFFFFFFFFFFFFFFFFFFFFFFFFFFFFFFFFFFFFFF AND DUP4 PUSH20 0xFFFFFFFFFFFFFFFFFFFFFFFFFFFFFFFFFFFFFFFF AND SUB PUSH2 0x1A3F JUMPI PUSH1 0x0 PUSH1 0x40 MLOAD PUSH32 0x96C6FD1E00000000000000000000000000000000000000000000000000000000 DUP2 MSTORE PUSH1 0x4 ADD PUSH2 0x1A36 SWAP2 SWAP1 PUSH2 0x2593 JUMP JUMPDEST PUSH1 0x40 MLOAD DUP1 SWAP2 SUB SWAP1 REVERT JUMPDEST PUSH1 0x0 PUSH20 0xFFFFFFFFFFFFFFFFFFFFFFFFFFFFFFFFFFFFFFFF AND DUP3 PUSH20 0xFFFFFFFFFFFFFFFFFFFFFFFFFFFFFFFFFFFFFFFF AND SUB PUSH2 0x1AB1 JUMPI PUSH1 0x0 PUSH1 0x40 MLOAD PUSH32 0xEC442F0500000000000000000000000000000000000000000000000000000000 DUP2 MSTORE PUSH1 0x4 ADD PUSH2 0x1AA8 SWAP2 SWAP1 PUSH2 0x2593 JUMP JUMPDEST PUSH1 0x40 MLOAD DUP1 SWAP2 SUB SWAP1 REVERT JUMPDEST PUSH2 0x1ABC DUP4 DUP4 DUP4 PUSH2 0x1D48 JUMP JUMPDEST POP POP POP JUMP JUMPDEST PUSH1 0x7 SLOAD DUP2 GT ISZERO PUSH2 0x1B06 JUMPI PUSH1 0x40 MLOAD PUSH32 0x8C379A000000000000000000000000000000000000000000000000000000000 DUP2 MSTORE PUSH1 0x4 ADD PUSH2 0x1AFD SWAP1 PUSH2 0x2D31 JUMP JUMPDEST PUSH1 0x40 MLOAD DUP1 SWAP2 SUB SWAP1 REVERT JUMPDEST DUP1 PUSH1 0x7 PUSH1 0x0 DUP3 DUP3 SLOAD PUSH2 0x1B18 SWAP2 SWAP1 PUSH2 0x2D51 JUMP JUMPDEST SWAP3 POP POP DUP2 SWAP1 SSTORE POP PUSH2 0x1B4A PUSH32 0x0 DUP4 DUP4 PUSH2 0x19CD JUMP JUMPDEST POP POP JUMP JUMPDEST PUSH1 0x0 DUP1 PUSH2 0x1B59 PUSH2 0x191F JUMP JUMPDEST SWAP1 POP PUSH2 0x1B66 DUP2 DUP6 DUP6 PUSH2 0x19CD JUMP JUMPDEST PUSH1 0x1 SWAP2 POP POP SWAP3 SWAP2 POP POP JUMP JUMPDEST PUSH1 0x0 PUSH20 0xFFFFFFFFFFFFFFFFFFFFFFFFFFFFFFFFFFFFFFFF AND DUP5 PUSH20 0xFFFFFFFFFFFFFFFFFFFFFFFFFFFFFFFFFFFFFFFF AND SUB PUSH2 0x1BE3 JUMPI PUSH1 0x0 PUSH1 0x40 MLOAD PUSH32 0xE602DF0500000000000000000000000000000000000000000000000000000000 DUP2 MSTORE PUSH1 0x4 ADD PUSH2 0x1BDA SWAP2 SWAP1 PUSH2 0x2593 JUMP JUMPDEST PUSH1 0x40 MLOAD DUP1 SWAP2 SUB SWAP1 REVERT JUMPDEST PUSH1 0x0 PUSH20 0xFFFFFFFFFFFFFFFFFFFFFFFFFFFFFFFFFFFFFFFF AND DUP4 PUSH20 0xFFFFFFFFFFFFFFFFFFFFFFFFFFFFFFFFFFFFFFFF AND SUB PUSH2 0x1C55 JUMPI PUSH1 0x0 PUSH1 0x40 MLOAD PUSH32 0x94280D6200000000000000000000000000000000000000000000000000000000 DUP2 MSTORE PUSH1 0x4 ADD PUSH2 0x1C4C SWAP2 SWAP1 PUSH2 0x2593 JUMP JUMPDEST PUSH1 0x40 MLOAD DUP1 SWAP2 SUB SWAP1 REVERT JUMPDEST DUP2 PUSH1 0x1 PUSH1 0x0 DUP7 PUSH20 0xFFFFFFFFFFFFFFFFFFFFFFFFFFFFFFFFFFFFFFFF AND PUSH20 0xFFFFFFFFFFFFFFFFFFFFFFFFFFFFFFFFFFFFFFFF AND DUP2 MSTORE PUSH1 0x20 ADD SWAP1 DUP2 MSTORE PUSH1 0x20 ADD PUSH1 0x0 KECCAK256 PUSH1 0x0 DUP6 PUSH20 0xFFFFFFFFFFFFFFFFFFFFFFFFFFFFFFFFFFFFFFFF AND PUSH20 0xFFFFFFFFFFFFFFFFFFFFFFFFFFFFFFFFFFFFFFFF AND DUP2 MSTORE PUSH1 0x20 ADD SWAP1 DUP2 MSTORE PUSH1 0x20 ADD PUSH1 0x0 KECCAK256 DUP2 SWAP1 SSTORE POP DUP1 ISZERO PUSH2 0x1D42 JUMPI DUP3 PUSH20 0xFFFFFFFFFFFFFFFFFFFFFFFFFFFFFFFFFFFFFFFF AND DUP5 PUSH20 0xFFFFFFFFFFFFFFFFFFFFFFFFFFFFFFFFFFFFFFFF AND PUSH32 0x8C5BE1E5EBEC7D5BD14F71427D1E84F3DD0314C0F7B2291E5B200AC8C7C3B925 DUP5 PUSH1 0x40 MLOAD PUSH2 0x1D39 SWAP2 SWAP1 PUSH2 0x202C JUMP JUMPDEST PUSH1 0x40 MLOAD DUP1 SWAP2 SUB SWAP1 LOG3 JUMPDEST POP POP POP POP JUMP JUMPDEST PUSH2 0x1D53 DUP4 DUP4 DUP4 PUSH2 0x1DEE JUMP JUMPDEST PUSH1 0x0 PUSH20 0xFFFFFFFFFFFFFFFFFFFFFFFFFFFFFFFFFFFFFFFF AND DUP4 PUSH20 0xFFFFFFFFFFFFFFFFFFFFFFFFFFFFFFFFFFFFFFFF AND SUB PUSH2 0x1DE9 JUMPI PUSH1 0x0 PUSH2 0x1D91 PUSH2 0xA29 JUMP JUMPDEST SWAP1 POP PUSH1 0x0 PUSH2 0x1D9D PUSH2 0x662 JUMP JUMPDEST SWAP1 POP DUP2 DUP2 GT ISZERO PUSH2 0x1DE6 JUMPI DUP1 DUP3 PUSH1 0x40 MLOAD PUSH32 0x9E79F85400000000000000000000000000000000000000000000000000000000 DUP2 MSTORE PUSH1 0x4 ADD PUSH2 0x1DDD SWAP3 SWAP2 SWAP1 PUSH2 0x2E88 JUMP JUMPDEST PUSH1 0x40 MLOAD DUP1 SWAP2 SUB SWAP1 REVERT JUMPDEST POP POP JUMPDEST POP POP POP JUMP JUMPDEST PUSH1 0x0 PUSH20 0xFFFFFFFFFFFFFFFFFFFFFFFFFFFFFFFFFFFFFFFF AND DUP4 PUSH20 0xFFFFFFFFFFFFFFFFFFFFFFFFFFFFFFFFFFFFFFFF AND SUB PUSH2 0x1E40 JUMPI DUP1 PUSH1 0x2 PUSH1 0x0 DUP3 DUP3 SLOAD PUSH2 0x1E34 SWAP2 SWAP1 PUSH2 0x2942 JUMP JUMPDEST SWAP3 POP POP DUP2 SWAP1 SSTORE POP PUSH2 0x1F13 JUMP JUMPDEST PUSH1 0x0 DUP1 PUSH1 0x0 DUP6 PUSH20 0xFFFFFFFFFFFFFFFFFFFFFFFFFFFFFFFFFFFFFFFF AND PUSH20 0xFFFFFFFFFFFFFFFFFFFFFFFFFFFFFFFFFFFFFFFF AND DUP2 MSTORE PUSH1 0x20 ADD SWAP1 DUP2 MSTORE PUSH1 0x20 ADD PUSH1 0x0 KECCAK256 SLOAD SWAP1 POP DUP2 DUP2 LT ISZERO PUSH2 0x1ECC JUMPI DUP4 DUP2 DUP4 PUSH1 0x40 MLOAD PUSH32 0xE450D38C00000000000000000000000000000000000000000000000000000000 DUP2 MSTORE PUSH1 0x4 ADD PUSH2 0x1EC3 SWAP4 SWAP3 SWAP2 SWAP1 PUSH2 0x2E51 JUMP JUMPDEST PUSH1 0x40 MLOAD DUP1 SWAP2 SUB SWAP1 REVERT JUMPDEST DUP2 DUP2 SUB PUSH1 0x0 DUP1 DUP7 PUSH20 0xFFFFFFFFFFFFFFFFFFFFFFFFFFFFFFFFFFFFFFFF AND PUSH20 0xFFFFFFFFFFFFFFFFFFFFFFFFFFFFFFFFFFFFFFFF AND DUP2 MSTORE PUSH1 0x20 ADD SWAP1 DUP2 MSTORE PUSH1 0x20 ADD PUSH1 0x0 KECCAK256 DUP2 SWAP1 SSTORE POP POP JUMPDEST PUSH1 0x0 PUSH20 0xFFFFFFFFFFFFFFFFFFFFFFFFFFFFFFFFFFFFFFFF AND DUP3 PUSH20 0xFFFFFFFFFFFFFFFFFFFFFFFFFFFFFFFFFFFFFFFF AND SUB PUSH2 0x1F5C JUMPI DUP1 PUSH1 0x2 PUSH1 0x0 DUP3 DUP3 SLOAD SUB SWAP3 POP POP DUP2 SWAP1 SSTORE POP PUSH2 0x1FA9 JUMP JUMPDEST DUP1 PUSH1 0x0 DUP1 DUP5 PUSH20 0xFFFFFFFFFFFFFFFFFFFFFFFFFFFFFFFFFFFFFFFF AND PUSH20 0xFFFFFFFFFFFFFFFFFFFFFFFFFFFFFFFFFFFFFFFF AND DUP2 MSTORE PUSH1 0x20 ADD SWAP1 DUP2 MSTORE PUSH1 0x20 ADD PUSH1 0x0 KECCAK256 PUSH1 0x0 DUP3 DUP3 SLOAD ADD SWAP3 POP POP DUP2 SWAP1 SSTORE POP JUMPDEST DUP2 PUSH20 0xFFFFFFFFFFFFFFFFFFFFFFFFFFFFFFFFFFFFFFFF AND DUP4 PUSH20 0xFFFFFFFFFFFFFFFFFFFFFFFFFFFFFFFFFFFFFFFF AND PUSH32 0xDDF252AD1BE2C89B69C2B068FC378DAA952BA7F163C4A11628F55A4DF523B3EF DUP4 PUSH1 0x40 MLOAD PUSH2 0x2006 SWAP2 SWAP1 PUSH2 0x202C JUMP JUMPDEST PUSH1 0x40 MLOAD DUP1 SWAP2 SUB SWAP1 LOG3 POP POP POP JUMP JUMPDEST PUSH1 0x0 DUP2 SWAP1 POP SWAP2 SWAP1 POP JUMP JUMPDEST PUSH2 0x2026 DUP2 PUSH2 0x2013 JUMP JUMPDEST DUP3 MSTORE POP POP JUMP JUMPDEST PUSH1 0x0 PUSH1 0x20 DUP3 ADD SWAP1 POP PUSH2 0x2041 PUSH1 0x0 DUP4 ADD DUP5 PUSH2 0x201D JUMP JUMPDEST SWAP3 SWAP2 POP POP JUMP JUMPDEST PUSH1 0x0 DUP2 MLOAD SWAP1 POP SWAP2 SWAP1 POP JUMP JUMPDEST PUSH1 0x0 DUP3 DUP3 MSTORE PUSH1 0x20 DUP3 ADD SWAP1 POP SWAP3 SWAP2 POP POP JUMP JUMPDEST PUSH1 0x0 JUMPDEST DUP4 DUP2 LT ISZERO PUSH2 0x2081 JUMPI DUP1 DUP3 ADD MLOAD DUP2 DUP5 ADD MSTORE PUSH1 0x20 DUP2 ADD SWAP1 POP PUSH2 0x2066 JUMP JUMPDEST PUSH1 0x0 DUP5 DUP5 ADD MSTORE POP POP POP POP JUMP JUMPDEST PUSH1 0x0 PUSH1 0x1F NOT PUSH1 0x1F DUP4 ADD AND SWAP1 POP SWAP2 SWAP1 POP JUMP JUMPDEST PUSH1 0x0 PUSH2 0x20A9 DUP3 PUSH2 0x2047 JUMP JUMPDEST PUSH2 0x20B3 DUP2 DUP6 PUSH2 0x2052 JUMP JUMPDEST SWAP4 POP PUSH2 0x20C3 DUP2 DUP6 PUSH1 0x20 DUP7 ADD PUSH2 0x2063 JUMP JUMPDEST PUSH2 0x20CC DUP2 PUSH2 0x208D JUMP JUMPDEST DUP5 ADD SWAP2 POP POP SWAP3 SWAP2 POP POP JUMP JUMPDEST PUSH1 0x0 PUSH1 0x20 DUP3 ADD SWAP1 POP DUP2 DUP2 SUB PUSH1 0x0 DUP4 ADD MSTORE PUSH2 0x20F1 DUP2 DUP5 PUSH2 0x209E JUMP JUMPDEST SWAP1 POP SWAP3 SWAP2 POP POP JUMP JUMPDEST PUSH1 0x0 PUSH1 0x40 MLOAD SWAP1 POP SWAP1 JUMP JUMPDEST PUSH1 0x0 DUP1 REVERT JUMPDEST PUSH1 0x0 DUP1 REVERT JUMPDEST PUSH1 0x0 PUSH20 0xFFFFFFFFFFFFFFFFFFFFFFFFFFFFFFFFFFFFFFFF DUP3 AND SWAP1 POP SWAP2 SWAP1 POP JUMP JUMPDEST PUSH1 0x0 PUSH2 0x2138 DUP3 PUSH2 0x210D JUMP JUMPDEST SWAP1 POP SWAP2 SWAP1 POP JUMP JUMPDEST PUSH2 0x2148 DUP2 PUSH2 0x212D JUMP JUMPDEST DUP2 EQ PUSH2 0x2153 JUMPI PUSH1 0x0 DUP1 REVERT JUMPDEST POP JUMP JUMPDEST PUSH1 0x0 DUP2 CALLDATALOAD SWAP1 POP PUSH2 0x2165 DUP2 PUSH2 0x213F JUMP JUMPDEST SWAP3 SWAP2 POP POP JUMP JUMPDEST PUSH2 0x2174 DUP2 PUSH2 0x2013 JUMP JUMPDEST DUP2 EQ PUSH2 0x217F JUMPI PUSH1 0x0 DUP1 REVERT JUMPDEST POP JUMP JUMPDEST PUSH1 0x0 DUP2 CALLDATALOAD SWAP1 POP PUSH2 0x2191 DUP2 PUSH2 0x216B JUMP JUMPDEST SWAP3 SWAP2 POP POP JUMP JUMPDEST PUSH1 0x0 DUP1 PUSH1 0x40 DUP4 DUP6 SUB SLT ISZERO PUSH2 0x21AE JUMPI PUSH2 0x21AD PUSH2 0x2103 JUMP JUMPDEST JUMPDEST PUSH1 0x0 PUSH2 0x21BC DUP6 DUP3 DUP7 ADD PUSH2 0x2156 JUMP JUMPDEST SWAP3 POP POP PUSH1 0x20 PUSH2 0x21CD DUP6 DUP3 DUP7 ADD PUSH2 0x2182 JUMP JUMPDEST SWAP2 POP POP SWAP3 POP SWAP3 SWAP1 POP JUMP JUMPDEST PUSH1 0x0 DUP2 ISZERO ISZERO SWAP1 POP SWAP2 SWAP1 POP JUMP JUMPDEST PUSH2 0x21EC DUP2 PUSH2 0x21D7 JUMP JUMPDEST DUP3 MSTORE POP POP JUMP JUMPDEST PUSH1 0x0 PUSH1 0x20 DUP3 ADD SWAP1 POP PUSH2 0x2207 PUSH1 0x0 DUP4 ADD DUP5 PUSH2 0x21E3 JUMP JUMPDEST SWAP3 SWAP2 POP POP JUMP JUMPDEST PUSH1 0x0 PUSH1 0x20 DUP3 DUP5 SUB SLT ISZERO PUSH2 0x2223 JUMPI PUSH2 0x2222 PUSH2 0x2103 JUMP JUMPDEST JUMPDEST PUSH1 0x0 PUSH2 0x2231 DUP5 DUP3 DUP6 ADD PUSH2 0x2156 JUMP JUMPDEST SWAP2 POP POP SWAP3 SWAP2 POP POP JUMP JUMPDEST PUSH1 0x0 DUP2 MLOAD SWAP1 POP SWAP2 SWAP1 POP JUMP JUMPDEST PUSH1 0x0 DUP3 DUP3 MSTORE PUSH1 0x20 DUP3 ADD SWAP1 POP SWAP3 SWAP2 POP POP JUMP JUMPDEST PUSH1 0x0 DUP2 SWAP1 POP PUSH1 0x20 DUP3 ADD SWAP1 POP SWAP2 SWAP1 POP JUMP JUMPDEST PUSH2 0x226F DUP2 PUSH2 0x212D JUMP JUMPDEST DUP3 MSTORE POP POP JUMP JUMPDEST PUSH1 0x0 PUSH2 0x2281 DUP4 DUP4 PUSH2 0x2266 JUMP JUMPDEST PUSH1 0x20 DUP4 ADD SWAP1 POP SWAP3 SWAP2 POP POP JUMP JUMPDEST PUSH1 0x0 PUSH1 0x20 DUP3 ADD SWAP1 POP SWAP2 SWAP1 POP JUMP JUMPDEST PUSH1 0x0 PUSH2 0x22A5 DUP3 PUSH2 0x223A JUMP JUMPDEST PUSH2 0x22AF DUP2 DUP6 PUSH2 0x2245 JUMP JUMPDEST SWAP4 POP PUSH2 0x22BA DUP4 PUSH2 0x2256 JUMP JUMPDEST DUP1 PUSH1 0x0 JUMPDEST DUP4 DUP2 LT ISZERO PUSH2 0x22EB JUMPI DUP2 MLOAD PUSH2 0x22D2 DUP9 DUP3 PUSH2 0x2275 JUMP JUMPDEST SWAP8 POP PUSH2 0x22DD DUP4 PUSH2 0x228D JUMP JUMPDEST SWAP3 POP POP PUSH1 0x1 DUP2 ADD SWAP1 POP PUSH2 0x22BE JUMP JUMPDEST POP DUP6 SWAP4 POP POP POP POP SWAP3 SWAP2 POP POP JUMP JUMPDEST PUSH1 0x0 PUSH1 0x20 DUP3 ADD SWAP1 POP DUP2 DUP2 SUB PUSH1 0x0 DUP4 ADD MSTORE PUSH2 0x2312 DUP2 DUP5 PUSH2 0x229A JUMP JUMPDEST SWAP1 POP SWAP3 SWAP2 POP POP JUMP JUMPDEST PUSH1 0x0 DUP1 PUSH1 0x0 PUSH1 0x60 DUP5 DUP7 SUB SLT ISZERO PUSH2 0x2333 JUMPI PUSH2 0x2332 PUSH2 0x2103 JUMP JUMPDEST JUMPDEST PUSH1 0x0 PUSH2 0x2341 DUP7 DUP3 DUP8 ADD PUSH2 0x2156 JUMP JUMPDEST SWAP4 POP POP PUSH1 0x20 PUSH2 0x2352 DUP7 DUP3 DUP8 ADD PUSH2 0x2156 JUMP JUMPDEST SWAP3 POP POP PUSH1 0x40 PUSH2 0x2363 DUP7 DUP3 DUP8 ADD PUSH2 0x2182 JUMP JUMPDEST SWAP2 POP POP SWAP3 POP SWAP3 POP SWAP3 JUMP JUMPDEST PUSH1 0x0 DUP2 MLOAD SWAP1 POP SWAP2 SWAP1 POP JUMP JUMPDEST PUSH1 0x0 DUP3 DUP3 MSTORE PUSH1 0x20 DUP3 ADD SWAP1 POP SWAP3 SWAP2 POP POP JUMP JUMPDEST PUSH1 0x0 DUP2 SWAP1 POP PUSH1 0x20 DUP3 ADD SWAP1 POP SWAP2 SWAP1 POP JUMP JUMPDEST PUSH2 0x23A2 DUP2 PUSH2 0x2013 JUMP JUMPDEST DUP3 MSTORE POP POP JUMP JUMPDEST PUSH1 0x0 DUP3 DUP3 MSTORE PUSH1 0x20 DUP3 ADD SWAP1 POP SWAP3 SWAP2 POP POP JUMP JUMPDEST PUSH1 0x0 PUSH2 0x23C4 DUP3 PUSH2 0x2047 JUMP JUMPDEST PUSH2 0x23CE DUP2 DUP6 PUSH2 0x23A8 JUMP JUMPDEST SWAP4 POP PUSH2 0x23DE DUP2 DUP6 PUSH1 0x20 DUP7 ADD PUSH2 0x2063 JUMP JUMPDEST PUSH2 0x23E7 DUP2 PUSH2 0x208D JUMP JUMPDEST DUP5 ADD SWAP2 POP POP SWAP3 SWAP2 POP POP JUMP JUMPDEST PUSH1 0x0 PUSH1 0xA0 DUP4 ADD PUSH1 0x0 DUP4 ADD MLOAD PUSH2 0x240A PUSH1 0x0 DUP7 ADD DUP3 PUSH2 0x2266 JUMP JUMPDEST POP PUSH1 0x20 DUP4 ADD MLOAD PUSH2 0x241D PUSH1 0x20 DUP7 ADD DUP3 PUSH2 0x2266 JUMP JUMPDEST POP PUSH1 0x40 DUP4 ADD MLOAD PUSH2 0x2430 PUSH1 0x40 DUP7 ADD DUP3 PUSH2 0x2399 JUMP JUMPDEST POP PUSH1 0x60 DUP4 ADD MLOAD DUP5 DUP3 SUB PUSH1 0x60 DUP7 ADD MSTORE PUSH2 0x2448 DUP3 DUP3 PUSH2 0x23B9 JUMP JUMPDEST SWAP2 POP POP PUSH1 0x80 DUP4 ADD MLOAD PUSH2 0x245D PUSH1 0x80 DUP7 ADD DUP3 PUSH2 0x2399 JUMP JUMPDEST POP DUP1 SWAP2 POP POP SWAP3 SWAP2 POP POP JUMP JUMPDEST PUSH1 0x0 PUSH2 0x2474 DUP4 DUP4 PUSH2 0x23F2 JUMP JUMPDEST SWAP1 POP SWAP3 SWAP2 POP POP JUMP JUMPDEST PUSH1 0x0 PUSH1 0x20 DUP3 ADD SWAP1 POP SWAP2 SWAP1 POP JUMP JUMPDEST PUSH1 0x0 PUSH2 0x2494 DUP3 PUSH2 0x236D JUMP JUMPDEST PUSH2 0x249E DUP2 DUP6 PUSH2 0x2378 JUMP JUMPDEST SWAP4 POP DUP4 PUSH1 0x20 DUP3 MUL DUP6 ADD PUSH2 0x24B0 DUP6 PUSH2 0x2389 JUMP JUMPDEST DUP1 PUSH1 0x0 JUMPDEST DUP6 DUP2 LT ISZERO PUSH2 0x24EC JUMPI DUP5 DUP5 SUB DUP10 MSTORE DUP2 MLOAD PUSH2 0x24CD DUP6 DUP3 PUSH2 0x2468 JUMP JUMPDEST SWAP5 POP PUSH2 0x24D8 DUP4 PUSH2 0x247C JUMP JUMPDEST SWAP3 POP PUSH1 0x20 DUP11 ADD SWAP10 POP POP PUSH1 0x1 DUP2 ADD SWAP1 POP PUSH2 0x24B4 JUMP JUMPDEST POP DUP3 SWAP8 POP DUP8 SWAP6 POP POP POP POP POP POP SWAP3 SWAP2 POP POP JUMP JUMPDEST PUSH1 0x0 PUSH1 0x20 DUP3 ADD SWAP1 POP DUP2 DUP2 SUB PUSH1 0x0 DUP4 ADD MSTORE PUSH2 0x2518 DUP2 DUP5 PUSH2 0x2489 JUMP JUMPDEST SWAP1 POP SWAP3 SWAP2 POP POP JUMP JUMPDEST PUSH1 0x0 PUSH1 0xFF DUP3 AND SWAP1 POP SWAP2 SWAP1 POP JUMP JUMPDEST PUSH2 0x2536 DUP2 PUSH2 0x2520 JUMP JUMPDEST DUP3 MSTORE POP POP JUMP JUMPDEST PUSH1 0x0 PUSH1 0x20 DUP3 ADD SWAP1 POP PUSH2 0x2551 PUSH1 0x0 DUP4 ADD DUP5 PUSH2 0x252D JUMP JUMPDEST SWAP3 SWAP2 POP POP JUMP JUMPDEST PUSH1 0x0 PUSH1 0x20 DUP3 DUP5 SUB SLT ISZERO PUSH2 0x256D JUMPI PUSH2 0x256C PUSH2 0x2103 JUMP JUMPDEST JUMPDEST PUSH1 0x0 PUSH2 0x257B DUP5 DUP3 DUP6 ADD PUSH2 0x2182 JUMP JUMPDEST SWAP2 POP POP SWAP3 SWAP2 POP POP JUMP JUMPDEST PUSH2 0x258D DUP2 PUSH2 0x212D JUMP JUMPDEST DUP3 MSTORE POP POP JUMP JUMPDEST PUSH1 0x0 PUSH1 0x20 DUP3 ADD SWAP1 POP PUSH2 0x25A8 PUSH1 0x0 DUP4 ADD DUP5 PUSH2 0x2584 JUMP JUMPDEST SWAP3 SWAP2 POP POP JUMP JUMPDEST PUSH1 0x0 PUSH2 0x25B9 DUP3 PUSH2 0x210D JUMP JUMPDEST SWAP1 POP SWAP2 SWAP1 POP JUMP JUMPDEST PUSH2 0x25C9 DUP2 PUSH2 0x25AE JUMP JUMPDEST DUP2 EQ PUSH2 0x25D4 JUMPI PUSH1 0x0 DUP1 REVERT JUMPDEST POP JUMP JUMPDEST PUSH1 0x0 DUP2 CALLDATALOAD SWAP1 POP PUSH2 0x25E6 DUP2 PUSH2 0x25C0 JUMP JUMPDEST SWAP3 SWAP2 POP POP JUMP JUMPDEST PUSH1 0x0 DUP1 REVERT JUMPDEST PUSH1 0x0 DUP1 REVERT JUMPDEST PUSH32 0x4E487B7100000000000000000000000000000000000000000000000000000000 PUSH1 0x0 MSTORE PUSH1 0x41 PUSH1 0x4 MSTORE PUSH1 0x24 PUSH1 0x0 REVERT JUMPDEST PUSH2 0x262E DUP3 PUSH2 0x208D JUMP JUMPDEST DUP2 ADD DUP2 DUP2 LT PUSH8 0xFFFFFFFFFFFFFFFF DUP3 GT OR ISZERO PUSH2 0x264D JUMPI PUSH2 0x264C PUSH2 0x25F6 JUMP JUMPDEST JUMPDEST DUP1 PUSH1 0x40 MSTORE POP POP POP JUMP JUMPDEST PUSH1 0x0 PUSH2 0x2660 PUSH2 0x20F9 JUMP JUMPDEST SWAP1 POP PUSH2 0x266C DUP3 DUP3 PUSH2 0x2625 JUMP JUMPDEST SWAP2 SWAP1 POP JUMP JUMPDEST PUSH1 0x0 PUSH8 0xFFFFFFFFFFFFFFFF DUP3 GT ISZERO PUSH2 0x268C JUMPI PUSH2 0x268B PUSH2 0x25F6 JUMP JUMPDEST JUMPDEST PUSH2 0x2695 DUP3 PUSH2 0x208D JUMP JUMPDEST SWAP1 POP PUSH1 0x20 DUP2 ADD SWAP1 POP SWAP2 SWAP1 POP JUMP JUMPDEST DUP3 DUP2 DUP4 CALLDATACOPY PUSH1 0x0 DUP4 DUP4 ADD MSTORE POP POP POP JUMP JUMPDEST PUSH1 0x0 PUSH2 0x26C4 PUSH2 0x26BF DUP5 PUSH2 0x2671 JUMP JUMPDEST PUSH2 0x2656 JUMP JUMPDEST SWAP1 POP DUP3 DUP2 MSTORE PUSH1 0x20 DUP2 ADD DUP5 DUP5 DUP5 ADD GT ISZERO PUSH2 0x26E0 JUMPI PUSH2 0x26DF PUSH2 0x25F1 JUMP JUMPDEST JUMPDEST PUSH2 0x26EB DUP5 DUP3 DUP6 PUSH2 0x26A2 JUMP JUMPDEST POP SWAP4 SWAP3 POP POP POP JUMP JUMPDEST PUSH1 0x0 DUP3 PUSH1 0x1F DUP4 ADD SLT PUSH2 0x2708 JUMPI PUSH2 0x2707 PUSH2 0x25EC JUMP JUMPDEST JUMPDEST DUP2 CALLDATALOAD PUSH2 0x2718 DUP5 DUP3 PUSH1 0x20 DUP7 ADD PUSH2 0x26B1 JUMP JUMPDEST SWAP2 POP POP SWAP3 SWAP2 POP POP JUMP JUMPDEST PUSH1 0x0 DUP1 PUSH1 0x0 PUSH1 0x60 DUP5 DUP7 SUB SLT ISZERO PUSH2 0x273A JUMPI PUSH2 0x2739 PUSH2 0x2103 JUMP JUMPDEST JUMPDEST PUSH1 0x0 PUSH2 0x2748 DUP7 DUP3 DUP8 ADD PUSH2 0x25D7 JUMP JUMPDEST SWAP4 POP POP PUSH1 0x20 PUSH2 0x2759 DUP7 DUP3 DUP8 ADD PUSH2 0x2182 JUMP JUMPDEST SWAP3 POP POP PUSH1 0x40 DUP5 ADD CALLDATALOAD PUSH8 0xFFFFFFFFFFFFFFFF DUP2 GT ISZERO PUSH2 0x277A JUMPI PUSH2 0x2779 PUSH2 0x2108 JUMP JUMPDEST JUMPDEST PUSH2 0x2786 DUP7 DUP3 DUP8 ADD PUSH2 0x26F3 JUMP JUMPDEST SWAP2 POP POP SWAP3 POP SWAP3 POP SWAP3 JUMP JUMPDEST PUSH1 0x0 DUP1 PUSH1 0x40 DUP4 DUP6 SUB SLT ISZERO PUSH2 0x27A7 JUMPI PUSH2 0x27A6 PUSH2 0x2103 JUMP JUMPDEST JUMPDEST PUSH1 0x0 PUSH2 0x27B5 DUP6 DUP3 DUP7 ADD PUSH2 0x2156 JUMP JUMPDEST SWAP3 POP POP PUSH1 0x20 PUSH2 0x27C6 DUP6 DUP3 DUP7 ADD PUSH2 0x2156 JUMP JUMPDEST SWAP2 POP POP SWAP3 POP SWAP3 SWAP1 POP JUMP JUMPDEST PUSH32 0x4E487B7100000000000000000000000000000000000000000000000000000000 PUSH1 0x0 MSTORE PUSH1 0x22 PUSH1 0x4 MSTORE PUSH1 0x24 PUSH1 0x0 REVERT JUMPDEST PUSH1 0x0 PUSH1 0x2 DUP3 DIV SWAP1 POP PUSH1 0x1 DUP3 AND DUP1 PUSH2 0x2817 JUMPI PUSH1 0x7F DUP3 AND SWAP2 POP JUMPDEST PUSH1 0x20 DUP3 LT DUP2 SUB PUSH2 0x282A JUMPI PUSH2 0x2829 PUSH2 0x27D0 JUMP JUMPDEST JUMPDEST POP SWAP2 SWAP1 POP JUMP JUMPDEST PUSH32 0x4E487B7100000000000000000000000000000000000000000000000000000000 PUSH1 0x0 MSTORE PUSH1 0x32 PUSH1 0x4 MSTORE PUSH1 0x24 PUSH1 0x0 REVERT JUMPDEST PUSH32 0x4E487B7100000000000000000000000000000000000000000000000000000000 PUSH1 0x0 MSTORE PUSH1 0x11 PUSH1 0x4 MSTORE PUSH1 0x24 PUSH1 0x0 REVERT JUMPDEST PUSH1 0x0 PUSH2 0x2899 DUP3 PUSH2 0x2013 JUMP JUMPDEST SWAP2 POP PUSH32 0xFFFFFFFFFFFFFFFFFFFFFFFFFFFFFFFFFFFFFFFFFFFFFFFFFFFFFFFFFFFFFFFF DUP3 SUB PUSH2 0x28CB JUMPI PUSH2 0x28CA PUSH2 0x285F JUMP JUMPDEST JUMPDEST PUSH1 0x1 DUP3 ADD SWAP1 POP SWAP2 SWAP1 POP JUMP JUMPDEST PUSH32 0x596F7572206163636F756E7420686173206265656E2066726F7A656E00000000 PUSH1 0x0 DUP3 ADD MSTORE POP JUMP JUMPDEST PUSH1 0x0 PUSH2 0x290C PUSH1 0x1C DUP4 PUSH2 0x2052 JUMP JUMPDEST SWAP2 POP PUSH2 0x2917 DUP3 PUSH2 0x28D6 JUMP JUMPDEST PUSH1 0x20 DUP3 ADD SWAP1 POP SWAP2 SWAP1 POP JUMP JUMPDEST PUSH1 0x0 PUSH1 0x20 DUP3 ADD SWAP1 POP DUP2 DUP2 SUB PUSH1 0x0 DUP4 ADD MSTORE PUSH2 0x293B DUP2 PUSH2 0x28FF JUMP JUMPDEST SWAP1 POP SWAP2 SWAP1 POP JUMP JUMPDEST PUSH1 0x0 PUSH2 0x294D DUP3 PUSH2 0x2013 JUMP JUMPDEST SWAP2 POP PUSH2 0x2958 DUP4 PUSH2 0x2013 JUMP JUMPDEST SWAP3 POP DUP3 DUP3 ADD SWAP1 POP DUP1 DUP3 GT ISZERO PUSH2 0x2970 JUMPI PUSH2 0x296F PUSH2 0x285F JUMP JUMPDEST JUMPDEST SWAP3 SWAP2 POP POP JUMP JUMPDEST PUSH1 0x0 DUP2 SWAP1 POP DUP2 PUSH1 0x0 MSTORE PUSH1 0x20 PUSH1 0x0 KECCAK256 SWAP1 POP SWAP2 SWAP1 POP JUMP JUMPDEST PUSH1 0x0 PUSH1 0x20 PUSH1 0x1F DUP4 ADD DIV SWAP1 POP SWAP2 SWAP1 POP JUMP JUMPDEST PUSH1 0x0 DUP3 DUP3 SHL SWAP1 POP SWAP3 SWAP2 POP POP JUMP JUMPDEST PUSH1 0x0 PUSH1 0x8 DUP4 MUL PUSH2 0x29D8 PUSH32 0xFFFFFFFFFFFFFFFFFFFFFFFFFFFFFFFFFFFFFFFFFFFFFFFFFFFFFFFFFFFFFFFF DUP3 PUSH2 0x299B JUMP JUMPDEST PUSH2 0x29E2 DUP7 DUP4 PUSH2 0x299B JUMP JUMPDEST SWAP6 POP DUP1 NOT DUP5 AND SWAP4 POP DUP1 DUP7 AND DUP5 OR SWAP3 POP POP POP SWAP4 SWAP3 POP POP POP JUMP JUMPDEST PUSH1 0x0 DUP2 SWAP1 POP SWAP2 SWAP1 POP JUMP JUMPDEST PUSH1 0x0 PUSH2 0x2A1F PUSH2 0x2A1A PUSH2 0x2A15 DUP5 PUSH2 0x2013 JUMP JUMPDEST PUSH2 0x29FA JUMP JUMPDEST PUSH2 0x2013 JUMP JUMPDEST SWAP1 POP SWAP2 SWAP1 POP JUMP JUMPDEST PUSH1 0x0 DUP2 SWAP1 POP SWAP2 SWAP1 POP JUMP JUMPDEST PUSH2 0x2A39 DUP4 PUSH2 0x2A04 JUMP JUMPDEST PUSH2 0x2A4D PUSH2 0x2A45 DUP3 PUSH2 0x2A26 JUMP JUMPDEST DUP5 DUP5 SLOAD PUSH2 0x29A8 JUMP JUMPDEST DUP3 SSTORE POP POP POP POP JUMP JUMPDEST PUSH1 0x0 SWAP1 JUMP JUMPDEST PUSH2 0x2A62 PUSH2 0x2A55 JUMP JUMPDEST PUSH2 0x2A6D DUP2 DUP5 DUP5 PUSH2 0x2A30 JUMP JUMPDEST POP POP POP JUMP JUMPDEST JUMPDEST DUP2 DUP2 LT ISZERO PUSH2 0x2A91 JUMPI PUSH2 0x2A86 PUSH1 0x0 DUP3 PUSH2 0x2A5A JUMP JUMPDEST PUSH1 0x1 DUP2 ADD SWAP1 POP PUSH2 0x2A73 JUMP JUMPDEST POP POP JUMP JUMPDEST PUSH1 0x1F DUP3 GT ISZERO PUSH2 0x2AD6 JUMPI PUSH2 0x2AA7 DUP2 PUSH2 0x2976 JUMP JUMPDEST PUSH2 0x2AB0 DUP5 PUSH2 0x298B JUMP JUMPDEST DUP2 ADD PUSH1 0x20 DUP6 LT ISZERO PUSH2 0x2ABF JUMPI DUP2 SWAP1 POP JUMPDEST PUSH2 0x2AD3 PUSH2 0x2ACB DUP6 PUSH2 0x298B JUMP JUMPDEST DUP4 ADD DUP3 PUSH2 0x2A72 JUMP JUMPDEST POP POP JUMPDEST POP POP POP JUMP JUMPDEST PUSH1 0x0 DUP3 DUP3 SHR SWAP1 POP SWAP3 SWAP2 POP POP JUMP JUMPDEST PUSH1 0x0 PUSH2 0x2AF9 PUSH1 0x0 NOT DUP5 PUSH1 0x8 MUL PUSH2 0x2ADB JUMP JUMPDEST NOT DUP1 DUP4 AND SWAP2 POP POP SWAP3 SWAP2 POP POP JUMP JUMPDEST PUSH1 0x0 PUSH2 0x2B12 DUP4 DUP4 PUSH2 0x2AE8 JUMP JUMPDEST SWAP2 POP DUP3 PUSH1 0x2 MUL DUP3 OR SWAP1 POP SWAP3 SWAP2 POP POP JUMP JUMPDEST PUSH2 0x2B2B DUP3 PUSH2 0x2047 JUMP JUMPDEST PUSH8 0xFFFFFFFFFFFFFFFF DUP2 GT ISZERO PUSH2 0x2B44 JUMPI PUSH2 0x2B43 PUSH2 0x25F6 JUMP JUMPDEST JUMPDEST PUSH2 0x2B4E DUP3 SLOAD PUSH2 0x27FF JUMP JUMPDEST PUSH2 0x2B59 DUP3 DUP3 DUP6 PUSH2 0x2A95 JUMP JUMPDEST PUSH1 0x0 PUSH1 0x20 SWAP1 POP PUSH1 0x1F DUP4 GT PUSH1 0x1 DUP2 EQ PUSH2 0x2B8C JUMPI PUSH1 0x0 DUP5 ISZERO PUSH2 0x2B7A JUMPI DUP3 DUP8 ADD MLOAD SWAP1 POP JUMPDEST PUSH2 0x2B84 DUP6 DUP3 PUSH2 0x2B06 JUMP JUMPDEST DUP7 SSTORE POP PUSH2 0x2BEC JUMP JUMPDEST PUSH1 0x1F NOT DUP5 AND PUSH2 0x2B9A DUP7 PUSH2 0x2976 JUMP JUMPDEST PUSH1 0x0 JUMPDEST DUP3 DUP2 LT ISZERO PUSH2 0x2BC2 JUMPI DUP5 DUP10 ADD MLOAD DUP3 SSTORE PUSH1 0x1 DUP3 ADD SWAP2 POP PUSH1 0x20 DUP6 ADD SWAP5 POP PUSH1 0x20 DUP2 ADD SWAP1 POP PUSH2 0x2B9D JUMP JUMPDEST DUP7 DUP4 LT ISZERO PUSH2 0x2BDF JUMPI DUP5 DUP10 ADD MLOAD PUSH2 0x2BDB PUSH1 0x1F DUP10 AND DUP3 PUSH2 0x2AE8 JUMP JUMPDEST DUP4 SSTORE POP JUMPDEST PUSH1 0x1 PUSH1 0x2 DUP9 MUL ADD DUP9 SSTORE POP POP POP JUMPDEST POP POP POP POP POP POP JUMP JUMPDEST PUSH1 0x0 PUSH2 0x2C0F PUSH2 0x2C0A PUSH2 0x2C05 DUP5 PUSH2 0x210D JUMP JUMPDEST PUSH2 0x29FA JUMP JUMPDEST PUSH2 0x210D JUMP JUMPDEST SWAP1 POP SWAP2 SWAP1 POP JUMP JUMPDEST PUSH1 0x0 PUSH2 0x2C21 DUP3 PUSH2 0x2BF4 JUMP JUMPDEST SWAP1 POP SWAP2 SWAP1 POP JUMP JUMPDEST PUSH1 0x0 PUSH2 0x2C33 DUP3 PUSH2 0x2C16 JUMP JUMPDEST SWAP1 POP SWAP2 SWAP1 POP JUMP JUMPDEST PUSH2 0x2C43 DUP2 PUSH2 0x2C28 JUMP JUMPDEST DUP3 MSTORE POP POP JUMP JUMPDEST PUSH1 0x0 PUSH1 0xA0 DUP3 ADD SWAP1 POP PUSH2 0x2C5E PUSH1 0x0 DUP4 ADD DUP9 PUSH2 0x2584 JUMP JUMPDEST PUSH2 0x2C6B PUSH1 0x20 DUP4 ADD DUP8 PUSH2 0x2C3A JUMP JUMPDEST PUSH2 0x2C78 PUSH1 0x40 DUP4 ADD DUP7 PUSH2 0x201D JUMP JUMPDEST DUP2 DUP2 SUB PUSH1 0x60 DUP4 ADD MSTORE PUSH2 0x2C8A DUP2 DUP6 PUSH2 0x209E JUMP JUMPDEST SWAP1 POP PUSH2 0x2C99 PUSH1 0x80 DUP4 ADD DUP5 PUSH2 0x201D JUMP JUMPDEST SWAP7 SWAP6 POP POP POP POP POP POP JUMP JUMPDEST PUSH1 0x0 PUSH2 0x2CAE DUP3 PUSH2 0x2013 JUMP JUMPDEST SWAP2 POP PUSH2 0x2CB9 DUP4 PUSH2 0x2013 JUMP JUMPDEST SWAP3 POP DUP3 DUP3 MUL PUSH2 0x2CC7 DUP2 PUSH2 0x2013 JUMP JUMPDEST SWAP2 POP DUP3 DUP3 DIV DUP5 EQ DUP4 ISZERO OR PUSH2 0x2CDE JUMPI PUSH2 0x2CDD PUSH2 0x285F JUMP JUMPDEST JUMPDEST POP SWAP3 SWAP2 POP POP JUMP JUMPDEST PUSH32 0x496E73756666696369656E742066756E6420696E2074686520706F6F6C000000 PUSH1 0x0 DUP3 ADD MSTORE POP JUMP JUMPDEST PUSH1 0x0 PUSH2 0x2D1B PUSH1 0x1D DUP4 PUSH2 0x2052 JUMP JUMPDEST SWAP2 POP PUSH2 0x2D26 DUP3 PUSH2 0x2CE5 JUMP JUMPDEST PUSH1 0x20 DUP3 ADD SWAP1 POP SWAP2 SWAP1 POP JUMP JUMPDEST PUSH1 0x0 PUSH1 0x20 DUP3 ADD SWAP1 POP DUP2 DUP2 SUB PUSH1 0x0 DUP4 ADD MSTORE PUSH2 0x2D4A DUP2 PUSH2 0x2D0E JUMP JUMPDEST SWAP1 POP SWAP2 SWAP1 POP JUMP JUMPDEST PUSH1 0x0 PUSH2 0x2D5C DUP3 PUSH2 0x2013 JUMP JUMPDEST SWAP2 POP PUSH2 0x2D67 DUP4 PUSH2 0x2013 JUMP JUMPDEST SWAP3 POP DUP3 DUP3 SUB SWAP1 POP DUP2 DUP2 GT ISZERO PUSH2 0x2D7F JUMPI PUSH2 0x2D7E PUSH2 0x285F JUMP JUMPDEST JUMPDEST SWAP3 SWAP2 POP POP JUMP JUMPDEST PUSH32 0x4E487B7100000000000000000000000000000000000000000000000000000000 PUSH1 0x0 MSTORE PUSH1 0x12 PUSH1 0x4 MSTORE PUSH1 0x24 PUSH1 0x0 REVERT JUMPDEST PUSH1 0x0 PUSH2 0x2DBF DUP3 PUSH2 0x2013 JUMP JUMPDEST SWAP2 POP PUSH2 0x2DCA DUP4 PUSH2 0x2013 JUMP JUMPDEST SWAP3 POP DUP3 PUSH2 0x2DDA JUMPI PUSH2 0x2DD9 PUSH2 0x2D85 JUMP JUMPDEST JUMPDEST DUP3 DUP3 DIV SWAP1 POP SWAP3 SWAP2 POP POP JUMP JUMPDEST PUSH32 0x496E73756666696369656E7420746F6B656E20737570706C7900000000000000 PUSH1 0x0 DUP3 ADD MSTORE POP JUMP JUMPDEST PUSH1 0x0 PUSH2 0x2E1B PUSH1 0x19 DUP4 PUSH2 0x2052 JUMP JUMPDEST SWAP2 POP PUSH2 0x2E26 DUP3 PUSH2 0x2DE5 JUMP JUMPDEST PUSH1 0x20 DUP3 ADD SWAP1 POP SWAP2 SWAP1 POP JUMP JUMPDEST PUSH1 0x0 PUSH1 0x20 DUP3 ADD SWAP1 POP DUP2 DUP2 SUB PUSH1 0x0 DUP4 ADD MSTORE PUSH2 0x2E4A DUP2 PUSH2 0x2E0E JUMP JUMPDEST SWAP1 POP SWAP2 SWAP1 POP JUMP JUMPDEST PUSH1 0x0 PUSH1 0x60 DUP3 ADD SWAP1 POP PUSH2 0x2E66 PUSH1 0x0 DUP4 ADD DUP7 PUSH2 0x2584 JUMP JUMPDEST PUSH2 0x2E73 PUSH1 0x20 DUP4 ADD DUP6 PUSH2 0x201D JUMP JUMPDEST PUSH2 0x2E80 PUSH1 0x40 DUP4 ADD DUP5 PUSH2 0x201D JUMP JUMPDEST SWAP5 SWAP4 POP POP POP POP JUMP JUMPDEST PUSH1 0x0 PUSH1 0x40 DUP3 ADD SWAP1 POP PUSH2 0x2E9D PUSH1 0x0 DUP4 ADD DUP6 PUSH2 0x201D JUMP JUMPDEST PUSH2 0x2EAA PUSH1 0x20 DUP4 ADD DUP5 PUSH2 0x201D JUMP JUMPDEST SWAP4 SWAP3 POP POP POP JUMP INVALID LOG2 PUSH5 0x6970667358 0x22 SLT KECCAK256 0xD9 SWAP13 STOP 0xDA PUSH9 0x672599B3F28C6EB610 0xC7 PUSH23 0xA21240A46B735654B9D3414F4BEE3DC264736F6C634300 ADDMOD EQ STOP CALLER "},"gasEstimates":{"creation":{"codeDepositCost":"2401400","executionCost":"infinite","totalCost":"infinite"},"external":{"_owner()":"infinite","addToReversePool(uint256)":"infinite","allowance(address,address)":"infinite","approve(address,uint256)":"infinite","balanceOf(address)":"2887","cap()":"infinite","decimals()":"388","deployToBlockchain(address,uint256,string)":"infinite","fraudulentUserAddresses(uint256)":"5022","frozenAddresses(uint256)":"5045","getAllFraudulentUsers()":"infinite","getAllFrozenUsers()":"infinite","getAllTransactions()":"infinite","getFraudulentUserReportCount(address)":"infinite","getTransactionCount()":"2505","isFraudulentUser(address)":"infinite","marketSupply()":"2496","name()":"infinite","ownerToken()":"2540","reportForReverse(address,uint256)":"infinite","restrictAccountAccess(address)":"infinite","reverseTransactionSupply()":"2476","symbol()":"infinite","totalSupply()":"2483","transfer(address,uint256)":"infinite","transferFrom(address,address,uint256)":"infinite","userDeposit(uint256)":"infinite","userWithdrawal(uint256)":"infinite"},"internal":{"reverseTransfer(address,uint256)":"infinite"}},"methodIdentifiers":{"_owner()":"b2bdfa7b","addToReversePool(uint256)":"bada6e23","allowance(address,address)":"dd62ed3e","approve(address,uint256)":"095ea7b3","balanceOf(address)":"70a08231","cap()":"355274ea","decimals()":"313ce567","deployToBlockchain(address,uint256,string)":"85805723","fraudulentUserAddresses(uint256)":"e80a4d58","frozenAddresses(uint256)":"5506ed44","getAllFraudulentUsers()":"1e36aa63","getAllFrozenUsers()":"2e9c3d94","getAllTransactions()":"27506f53","getFraudulentUserReportCount(address)":"dcf6ea88","getTransactionCount()":"2e7700f0","isFraudulentUser(address)":"19a3c68d","marketSupply()":"bafb8e83","name()":"06fdde03","ownerToken()":"65371883","reportForReverse(address,uint256)":"8d1aadbf","restrictAccountAccess(address)":"90aaafb3","reverseTransactionSupply()":"044d1d4c","symbol()":"95d89b41","totalSupply()":"18160ddd","transfer(address,uint256)":"a9059cbb","transferFrom(address,address,uint256)":"23b872dd","userDeposit(uint256)":"f868e766","userWithdrawal(uint256)":"f09c69c7"}},"storageLayout":{"storage":[{"astId":159,"contract":"contracts/FoterreToken.sol:FoterreToken","label":"_balances","offset":0,"slot":"0","type":"t_mapping(t_address,t_uint256)"},{"astId":165,"contract":"contracts/FoterreToken.sol:FoterreToken","label":"_allowances","offset":0,"slot":"1","type":"t_mapping(t_address,t_mapping(t_address,t_uint256))"},{"astId":167,"contract":"contracts/FoterreToken.sol:FoterreToken","label":"_totalSupply","offset":0,"slot":"2","type":"t_uint256"},{"astId":169,"contract":"contracts/FoterreToken.sol:FoterreToken","label":"_name","offset":0,"slot":"3","type":"t_string_storage"},{"astId":171,"contract":"contracts/FoterreToken.sol:FoterreToken","label":"_symbol","offset":0,"slot":"4","type":"t_string_storage"},{"astId":902,"contract":"contracts/FoterreToken.sol:FoterreToken","label":"ownerToken","offset":0,"slot":"5","type":"t_uint256"},{"astId":904,"contract":"contracts/FoterreToken.sol:FoterreToken","label":"marketSupply","offset":0,"slot":"6","type":"t_uint256"},{"astId":906,"contract":"contracts/FoterreToken.sol:FoterreToken","label":"reverseTransactionSupply","offset":0,"slot":"7","type":"t_uint256"},{"astId":908,"contract":"contracts/FoterreToken.sol:FoterreToken","label":"transactionCount","offset":0,"slot":"8","type":"t_uint256"},{"astId":917,"contract":"contracts/FoterreToken.sol:FoterreToken","label":"fraudulentUserAddresses","offset":0,"slot":"9","type":"t_array(t_address)dyn_storage"},{"astId":920,"contract":"contracts/FoterreToken.sol:FoterreToken","label":"frozenAddresses","offset":0,"slot":"10","type":"t_array(t_address)dyn_storage"},{"astId":922,"contract":"contracts/FoterreToken.sol:FoterreToken","label":"penaltyAmount","offset":0,"slot":"11","type":"t_uint256"},{"astId":924,"contract":"contracts/FoterreToken.sol:FoterreToken","label":"fraudulentUserCount","offset":0,"slot":"12","type":"t_uint256"},{"astId":951,"contract":"contracts/FoterreToken.sol:FoterreToken","label":"transactionStruct","offset":0,"slot":"13","type":"t_array(t_struct(TransactionDetail)947_storage)dyn_storage"}],"types":{"t_address":{"encoding":"inplace","label":"address","numberOfBytes":"20"},"t_array(t_address)dyn_storage":{"base":"t_address","encoding":"dynamic_array","label":"address[]","numberOfBytes":"32"},"t_array(t_struct(TransactionDetail)947_storage)dyn_storage":{"base":"t_struct(TransactionDetail)947_storage","encoding":"dynamic_array","label":"struct FoterreToken.TransactionDetail[]","numberOfBytes":"32"},"t_mapping(t_address,t_mapping(t_address,t_uint256))":{"encoding":"mapping","key":"t_address","label":"mapping(address => mapping(address => uint256))","numberOfBytes":"32","value":"t_mapping(t_address,t_uint256)"},"t_mapping(t_address,t_uint256)":{"encoding":"mapping","key":"t_address","label":"mapping(address => uint256)","numberOfBytes":"32","value":"t_uint256"},"t_string_storage":{"encoding":"bytes","label":"string","numberOfBytes":"32"},"t_struct(TransactionDetail)947_storage":{"encoding":"inplace","label":"struct FoterreToken.TransactionDetail","members":[{"astId":938,"contract":"contracts/FoterreToken.sol:FoterreToken","label":"sender","offset":0,"slot":"0","type":"t_address"},{"astId":940,"contract":"contracts/FoterreToken.sol:FoterreToken","label":"recipient","offset":0,"slot":"1","type":"t_address"},{"astId":942,"contract":"contracts/FoterreToken.sol:FoterreToken","label":"amount","offset":0,"slot":"2","type":"t_uint256"},{"astId":944,"contract":"contracts/FoterreToken.sol:FoterreToken","label":"message","offset":0,"slot":"3","type":"t_string_storage"},{"astId":946,"contract":"contracts/FoterreToken.sol:FoterreToken","label":"datetime","offset":0,"slot":"4","type":"t_uint256"}],"numberOfBytes":"160"},"t_uint256":{"encoding":"inplace","label":"uint256","numberOfBytes":"32"}}},"userdoc":{"kind":"user","methods":{},"version":1}}}}